:020000040800F2
:100000000000022051250008A1250008A1250008B4
:10001000A1250008A1250008A12500080000000076
:10002000000000000000000000000000A125000802
:10003000A125000800000000A12500089D2200085D
:10004000A1250008A1250008A1250008A125000878
:10005000A1250008A1250008A1250008A125000868
:10006000A1250008A1250008A1250008A125000858
:10007000A1250008A1250008A1250008A125000848
:10008000A1250008A1250008A1250008A125000838
:10009000A1250008A1250008A1250008A125000828
:1000A000A1250008A1250008A1250008A125000818
:1000B000B1220008A1250008A1250008A1250008FB
:1000C000A1250008A1250008A1250008A1250008F8
:1000D000A1250008A1250008A1250008A1250008E8
:1000E000F1220008A1250008A1250008A12500088B
:1000F000A1250008A1250008A1250008A1250008C8
:10010000A1250008A1250008A1250008A1250008B7
:10011000A1250008A1250008A1250008A1250008A7
:10012000A1250008A1250008A1250008A125000897
:10013000A1250008A1250008A1250008A125000887
:10014000A1250008A1250008A1250008A125000877
:10015000A1250008A1250008A1250008A125000867
:10016000A1250008A1250008A1250008A125000857
:10017000A1250008A1250008A1250008A125000847
:10018000A1250008A1250008A1250008A125000837
:10019000A1250008A1250008A125000808B54FF0F9
:1001A0000003C4F2020398420BD14FF00100014654
:1001B00000F0B8FB4FF001004FF0000100F0B2FB7F
:1001C00008BD4FF48063C4F2020398420CD14FF093
:1001D00002004FF0010100F0A5FB4FF002004FF0CC
:1001E000000100F09FFB08BD4FF40063C4F202035E
:1001F00098420CD14FF004004FF0010100F092FB47
:100200004FF004004FF0000100F08CFB08BD4FF4EC
:100210004063C4F2020398420CD14FF008004FF043
:10022000010100F07FFB4FF008004FF0000100F0EB
:1002300079FB08BD4FF48053C4F2020398420CD1FD
:100240004FF010004FF0010100F06CFB4FF0100078
:100250004FF0000100F066FB08BD4FF4A053C4F25C
:10026000020398420CD14FF020004FF0010100F042
:1002700059FB4FF020004FF0000100F053FB08BD88
:100280004FF4C053C4F2020398420CD14FF0400027
:100290004FF0010100F046FB4FF040004FF000012D
:1002A00000F040FB08BD4FF4E053C4F20203984253
:1002B0000CD14FF080004FF0010100F033FB4FF004
:1002C00080004FF0000100F02DFB08BD4FF40053FB
:1002D000C4F2020398420BD14FF480704FF0010139
:1002E00000F020FB4FF480704FF0000100F01AFB8B
:1002F00008BD00BF2DE9F0074FF0000213464FF094
:1003000001074FF0030C1E4607FA03F40D68254061
:10031000A54243D1D0F8009090460CFA02F46FEA5F
:10032000040404EA0909C0F80090D0F800A091F88C
:10033000049009FA02F949EA0A09C0F8009091F814
:10034000049009F1FF395FFA89F9B9F1010F1CD85E
:10035000D0F8089004EA0909C0F80890D0F808A07D
:1003600091F8059009FA02F949EA0A09C0F80890DB
:10037000D0F8049029EA05054560456891F8069093
:1003800009FA03F6B6B22E434660C5682C40C46035
:10039000C568CC7904FA08F42C43C46003F1010366
:1003A00002F10202102BAED1BDE8F007704700BF8A
:1003B0004FF6FF7303604FF00003037143718371C5
:1003C000C371704782B04FF480330193019B0B439C
:1003D0000193019BC361C161019BC361C369019327
:1003E000C369019302B07047036919420CBF002032
:1003F00001207047006980B2704700BF436919420D
:100400000CBF002001207047406980B2704700BFD8
:1004100001837047418370470AB10183704741836C
:10042000704700BF4161704743695940416170475F
:1004300030B401F007034FEA83034FEAD10101F121
:10044000080150F821504FF00F0404FA03F425EA94
:10045000040440F8214050F8214002FA03F32343FA
:1004600040F8213030BC70474FF47053C4F20103A0
:100470004FF000021A605A609A60DA604FF6FF721D
:10048000C0F27F025A61704710B48379002B39D0D3
:100490004FF47053C4F201031A68016822EA0102A2
:1004A0001A605A68016822EA01025A60027902F170
:1004B000804202F59E3214680168214311609A68F7
:1004C000016822EA01029A60DA68016822EA010200
:1004D000DA604379102B0CD14FF47053C4F201034E
:1004E000996802680A439A60D96802680A43DA6028
:1004F00012E003F1804303F59E33196802680A4352
:100500001A6009E0037903F1804303F59E331A680A
:10051000016822EA01021A6010BC70474FF0000324
:10052000036003714FF00C0242718371704700BF8A
:100530004FF47053C4F201031A69104318617047F5
:100540004FF47053C4F201035B6918420CBF0020E2
:10055000012070474FF47053C4F201035861704793
:100560004FF47053C4F201031A685B69184204D057
:1005700010420CBF0020012070474FF00000704770
:100580004FF47053C4F20103586170474FF4605345
:10059000C4F202031A6842F001021A604FF000022E
:1005A0009A60196821F0847121F48031196043F256
:1005B0001001C2F200415960196821F480211960CC
:1005C000DA60704743F60203C4F202034FF0000200
:1005D0001A701870704700BF4FF46053C4F20203E2
:1005E0001A6822F0F80242EAC0001860704700BFA3
:1005F0004FF00003C4F247231860704743F67003BE
:10060000C4F202034FF000021A701A70012802D0DF
:1006100004280FD107E043F67003C4F202034FF041
:1006200001021A70704743F67003C4F202034FF0E0
:1006300005021A70704700BF4FF46863C4F2472385
:1006400018607047014341EA8212009942EA016151
:100650004FEA530202F1FF3241EA02424FF4605383
:10066000C4F202035A6070474FF06003C4F247239C
:10067000186070474FEA801040EA01704FF46053F1
:10068000C4F20203C3F88400704700BF4FF0680350
:10069000C4F24723186070474FF04C03C4F247235D
:1006A000186070474FF46053C4F202039A6822F056
:1006B000EC62104308439860704700BF4FF46053EA
:1006C000C4F202039A6822F078421043084398600B
:1006D000704700BF4FF46053C4F202039A6822F0DF
:1006E00003021043986070474FF46053C4F2020352
:1006F000986800F00C0070474FF46053C4F2020396
:100700009A6822F0F0021043986070474FF46053EB
:10071000C4F202039A6822F4E052104398607047D2
:100720004FF46053C4F202039A6822F4604242EA32
:10073000C0009860704700BF10B44FF46053C4F21B
:1007400002039B6803F00C03042B02BF4FF4905389
:10075000C0F27A0303603AD0082B06D093BB4FF463
:100760001053C0F2F403036031E04FF46053C4F25D
:1007700002035C685A6802F03F0214F4800F4FF4E1
:100780006053C4F202035B68C3F3881319BF4FF4CC
:100790009054C0F27A044FF41054C0F2F404B4FB45
:1007A000F2F101FB03F14FF46053C4F202035A6803
:1007B000C2F3014202F101024FEA4202B1FBF2F33D
:1007C000036004E04FF41053C0F2F40303604FF4ED
:1007D0006052C4F202029168C1F3031140F20003B7
:1007E000C2F20003595C046824FA01F14160946884
:1007F000C4F382241C5D21FA04F484609268C2F37D
:1008000042329B5C21FA03F1C16010BC704700BF0B
:1008100000F44073B3F5407F0CD14FF46053C4F241
:100820000203996821F4F81120F0704222F440721A
:100830000A439A604FF46053C4F202031A6F4FEAFE
:1008400000504FEA105010431867704740F63C6361
:10085000C4F24723186070474FF46463C4F247231F
:10086000186070474FF4AE73C4F2472318607047A6
:1008700039B14FF46053C4F202031A6B104318638A
:1008800070474FF46053C4F202031A6B22EA00006F
:100890001863704739B14FF46053C4F202035A6BC6
:1008A0001043586370474FF46053C4F202035A6B0D
:1008B00022EA00005863704739B14FF46053C4F224
:1008C00002039A6B1043986370474FF46053C4F26D
:1008D00002039A6B22EA00009863704739B14FF423
:1008E0006053C4F202031A6C1043186470474FF44B
:1008F0006053C4F202031A6C22EA000018647047C5
:1009000039B14FF46053C4F202035A6C1043586477
:1009100070474FF46053C4F202035A6C22EA00009D
:100920005864704739B14FF46053C4F202031A6936
:100930001043186170474FF46053C4F202031A6900
:1009400022EA00001861704739B14FF46053C4F2D5
:1009500002035A691043586170474FF46053C4F260
:1009600002035A6922EA00005861704739B14FF416
:100970006053C4F202039A691043986170474FF4C0
:100980006053C4F202039A6922EA0000986170473A
:1009900039B14FF46053C4F202031A6A104318626B
:1009A00070474FF46053C4F202031A6A22EA00004F
:1009B0001862704739B14FF46053C4F202035A6AA7
:1009C0001043586270474FF46053C4F202035A6AEE
:1009D00022EA00005862704739B14FF46053C4F204
:1009E00002031A6D1043186570474FF46053C4F248
:1009F00002031A6D22EA00001865704739B14FF4FE
:100A00006053C4F202035A6D1043586570474FF4A7
:100A10006053C4F202035A6D22EA00005865704721
:100A200039B14FF46053C4F202039A6D10439865D4
:100A300070474FF46053C4F202039A6D22EA00003B
:100A40009865704739B14FF46053C4F202031A6ECF
:100A50001043186670474FF46053C4F202031A6ED5
:100A600022EA00001866704739B14FF46053C4F2AF
:100A700002035A6E1043586670474FF46053C4F235
:100A800002035A6E22EA00005866704739B143F6F5
:100A90000D03C4F202031A7810431870704743F62E
:100AA0000D03C4F202031A7822EA0000187070479E
:100AB0004FEA5013012B05D14FF46053C4F20203E7
:100AC0001B6807E0022B4FF46053C4F202030CBF13
:100AD0001B6F5B6F00F01F0023FA00F000F00100B5
:100AE000704700BF10B582B04FF0000301934FF084
:100AF00031042046FFF7DCFF019B03F10103019362
:100B0000019BB3F5A06F01D00028F2D04FF0310067
:100B1000FFF7CEFF003018BF012002B010BD00BFAC
:100B20004FF46053C4F202035A6F42F080725A6766
:100B3000704700BF4FF46053C4F20203DB681842F1
:100B40000CBF00200120704743F60E03C4F20203DD
:100B5000187070474FF46053C4F202031A6B42F0EE
:100B600008021A634FF44063C4F202031A6822F0C9
:100B70007F421A601A6842F0AA421A605A6822F448
:100B800070425A609A6822F07F429A609A6842F0F6
:100B90002A429A60DA6822F07F42DA60DA6842F02C
:100BA000AA42DA60704700BF08B503280ED8DFE814
:100BB00000F00205080B01F073F908BD01F078F9A7
:100BC00008BD01F07DF908BD01F082F908BD00BF44
:100BD00008B503280ED8DFE800F00205080B01F085
:100BE0007FF908BD01F084F908BD01F089F908BD5D
:100BF00001F08EF908BD00BF70B505464FF0000446
:100C00004FF0010606FA04F32B4203D02046FFF70B
:100C1000CBFF02E02046FFF7DBFF04F10104042CC8
:100C2000F0D170BD4FF46053C4F202031A6C42F06D
:100C300001021A64704700BF80B24FF080431885EC
:100C4000D96270474FF080439A8A92B242F0010213
:100C50009A821A8A22F001024FEA02424FEA1242B5
:100C60001A829A8992B242F001029A814FF461424B
:100C7000CEF200024FF0805111601A8892B242F019
:100C800001021A80704700BFDFF8984DDFF8985DC9
:100C90002560DFF8984DDFF8985D25607047DFF834
:100CA000844DDFF8905D2560DFF8804DDFF8885DCA
:100CB0002560704700F01F004FEA4000874400BFE6
:100CC00020E052E084E0B6E0E8E01AE14CE17EE1A9
:100CD000B0E1E2E114E246E278E2AAE2DCE20EE30D
:100CE00040E372E3A4E3D6E3D5E3D4E3D3E3D2E372
:100CF000D1E3D0E3CFE3CEE3CDE3CCE3CBE3CAE370
:100D0000C9E3C8E3DFF8244DDFF8305D2560DFF884
:100D1000144DDFF82C5D2560DFF8104DDFF8245D01
:100D20002560DFF8004DDFF8205D2560DFF8F44C2A
:100D3000DFF8185D2560DFF8F44CDFF8045D25600E
:100D4000DFF8E04CDFF8F05C2560DFF8D84CDFF826
:100D5000005D2560DFF8D44CDFF8F85C2560DFF833
:100D6000CC4CDFF8EC5C25607047DFF8C04CDFF856
:100D7000E85C2560DFF8AC4CDFF8C45C2560DFF888
:100D8000AC4CDFF8C05C2560DFF8984CDFF8CC5C39
:100D90002560DFF8904CDFF8C85C2560DFF88C4CEC
:100DA000DFF8C05C2560DFF87C4CDFF88C5C2560E8
:100DB000DFF8704CDFF8985C2560DFF8704CDFF8E6
:100DC000945C2560DFF8644CDFF8845C2560704734
:100DD000DFF8584CDFF8645C2560DFF8484CDFF83A
:100DE000605C2560DFF8444CDFF87C5C2560DFF850
:100DF000344CDFF8545C2560DFF8284CDFF84C5C9D
:100E00002560DFF8284CDFF85C5C2560DFF8144CC7
:100E1000DFF81C5C2560DFF80C4CDFF8345C2560E3
:100E2000DFF8084CDFF82C5C2560DFF8004CDFF8B9
:100E3000205C25607047DFF8F44BDFF8005C25602C
:100E4000DFF8E04BDFF8F85B2560DFF8E04BDFF818
:100E5000F45B2560DFF8CC4BDFF8EC5B2560DFF856
:100E6000C44BDFF8FC5B2560DFF8C04BDFF8F45BB8
:100E70002560DFF8B04BDFF8B85B2560DFF8A44BE6
:100E8000DFF8CC5B2560DFF8A44BDFF8C85B25609A
:100E9000DFF8984BDFF8B85B25607047DFF88C4BC4
:100EA000DFF8B45B2560DFF87C4BDFF8945B2560EE
:100EB000DFF8784BDFF88C5B2560DFF8684BDFF8F4
:100EC0009C5B2560DFF85C4BDFF8945B2560DFF806
:100ED0005C4BDFF86C5B2560DFF8484BDFF8505B5C
:100EE0002560DFF8404BDFF8685B2560DFF83C4B9E
:100EF000DFF8605B2560DFF8344BDFF8545B25607A
:100F00007047DFF8284BDFF8345B2560DFF8144BBF
:100F1000DFF8505B2560DFF8144BDFF8285B2560B5
:100F2000DFF8004BDFF8205B2560DFF8F84ADFF8D8
:100F3000305B2560DFF8F44ADFF8045B2560DFF8FA
:100F4000E44ADFF8EC5A2560DFF8D84ADFF8005BA6
:100F50002560DFF8D84ADFF8FC5A2560DFF8CC4A74
:100F6000DFF8EC5A25607047DFF8C04ADFF8CC5A4A
:100F70002560DFF8B04ADFF8EC5A2560DFF8AC4AAC
:100F8000DFF8C05A2560DFF89C4ADFF8BC5A2560BC
:100F9000DFF8904ADFF8B45A2560DFF8904ADFF8AE
:100FA000A05A2560DFF87C4ADFF8845A2560DFF814
:100FB000744ADFF89C5A2560DFF8704ADFF8945ACB
:100FC0002560DFF8684ADFF8885A25607047DFF847
:100FD0005C4ADFF8685A2560DFF8484ADFF8605A53
:100FE0002560DFF8484ADFF85C5A2560DFF8344AAC
:100FF000DFF8685A2560DFF82C4ADFF8645A25606C
:10100000DFF8284ADFF85C5A2560DFF8184ADFF875
:10101000285A2560DFF80C4ADFF8345A2560DFF8DB
:101020000C4ADFF8305A2560DFF8004ADFF8205A12
:1010300025607047DFF8F449DFF8005A2560DFF8D3
:10104000E449DFF8FC592560DFF8E049DFF8F4599E
:101050002560DFF8D049DFF8F0592560DFF8C44992
:10106000DFF8E8592560DFF8C449DFF8D459256076
:10107000DFF8B049DFF8B8592560DFF8A849DFF894
:10108000D0592560DFF8A449DFF8C8592560DFF89A
:101090009C49DFF8BC5925607047DFF89049DFF8BC
:1010A0009C592560DFF87C49DFF894592560DFF80A
:1010B0007C49DFF890592560DFF86849DFF88859E6
:1010C0002560DFF86049DFF898592560DFF85C4952
:1010D000DFF86C592560DFF84C49DFF8545925607A
:1010E000DFF84049DFF868592560DFF84049DFF84C
:1010F00064592560DFF83449DFF85459256070479A
:10110000DFF82849DFF834592560DFF81849DFF89F
:1011100030592560DFF81449DFF828592560DFF8D9
:101120000449DFF838592560DFF8F848DFF81C5922
:101130002560DFF8F848DFF808592560DFF8E44853
:10114000DFF8EC582560DFF8DC48DFF8045925604B
:10115000DFF8D848DFF8FC582560DFF8D048DFF822
:10116000F05825607047DFF8C448DFF8EC58256078
:10117000DFF8B048DFF8EC582560DFF8B048DFF85A
:10118000C4582560DFF89C48DFF8BC582560DFF8BC
:101190009448DFF8B8582560DFF89048DFF8A05889
:1011A0002560DFF88048DFF888582560DFF874484C
:1011B000DFF89C582560DFF87448DFF89858256000
:1011C000DFF86848DFF8885825607047DFF85C482A
:1011D000DFF884582560DFF84C48DFF88858256030
:1011E000DFF84848DFF880582560DFF83848DFF836
:1011F00058582560DFF82C48DFF850582560DFF894
:101200002C48DFF860582560DFF81848DFF82058D0
:101210002560DFF81048DFF838582560DFF80C4803
:10122000DFF830582560DFF80448DFF824582560DF
:101230007047DFF8F847DFF820582560DFF8E4470B
:10124000DFF8FC572560DFF8E447DFF8F857256042
:10125000DFF8D047DFF8F0572560DFF8C847DFF840
:10126000EC572560DFF8C447DFF8F8572560DFF852
:10127000B447DFF8BC572560DFF8A847DFF8D05740
:101280002560DFF8A847DFF8CC572560DFF89C47DA
:10129000DFF8BC5725607047DFF89047DFF89C57B0
:1012A0002560DFF88047DFF8BC572560DFF87C4712
:1012B000DFF8B4572560DFF86C47DFF88C572560FE
:1012C000DFF86047DFF884572560DFF86047DFF814
:1012D00070572560DFF84C47DFF854572560DFF87A
:1012E0004447DFF86C572560DFF84047DFF8645764
:1012F0002560DFF83847DFF8585725607047DFF87A
:101300002C47DFF838572560DFF81847DFF85457C7
:101310002560DFF81847DFF850572560DFF80447ED
:10132000DFF838572560DFF8FC46DFF820572560E6
:10133000DFF8F846DFF808572560DFF8E846DFF801
:10134000F0562560DFF8DC46DFF804572560DFF84B
:10135000DC46DFF800572560DFF8D046DFF8F056AE
:1013600025607047DFF8C446DFF8EC562560DFF8EB
:10137000B446DFF8F0562560DFF8B046DFF8E856EF
:101380002560DFF8A046DFF8D4562560DFF89446E4
:10139000DFF8CC562560DFF89446DFF8C8562560A4
:1013A000DFF88046DFF890562560DFF87846DFF8F2
:1013B000A4562560DFF87446DFF898562560DFF8FC
:1013C0006C46DFF88C5625607047DFF86046DFF822
:1013D0006C562560DFF84C46DFF864562560DFF870
:1013E0004C46DFF884562560DFF83846DFF86C5647
:1013F0002560DFF83046DFF868562560DFF82C46B8
:10140000DFF860562560DFF81C46DFF82C562560B3
:10141000DFF81046DFF838562560DFF81046DFF8B1
:1014200034562560DFF80446DFF8245625607047FF
:10143000DFF8F845DFF820562560DFF8E845DFF8EB
:1014400024562560DFF8E445DFF8F8552560DFF81D
:10145000D445DFF808562560DFF8C845DFF80056A8
:101460002560DFF8C845DFF8FC552560DFF8B44596
:10147000DFF8C4552560DFF8AC45DFF8D4552560AA
:10148000DFF8A845DFF8CC552560DFF8A045DFF888
:10149000C05525607047DFF89445DFF8BC552560DE
:1014A000DFF88045DFF8BC552560DFF88045DFF8C0
:1014B000B8552560DFF86C45DFF8A0552560DFF8EA
:1014C0006445DFF89C552560DFF86045DFF89455EA
:1014D0002560DFF85045DFF860552560DFF84445AA
:1014E000DFF86C552560DFF84445DFF86855256066
:1014F000DFF83845DFF858552560704700F00700E1
:101500004FEA4000874400BF04E036E068E098E01E
:10151000B9E0D7E0DFF80C45DFF840552560DFF88B
:101520000445DFF83C552560DFF8F844DFF8205526
:101530002560DFF8F044DFF82C552560DFF8E4443F
:10154000DFF828552560DFF8E444DFF81C552560F6
:10155000DFF8D844DFF8E8542560DFF8D044DFF83E
:10156000F8542560DFF8C444DFF8E0542560DFF864
:10157000BC44DFF8EC5425607047DFF8A844DFF87E
:10158000DC542560DFF89C44DFF8D4542560DFF894
:101590009444DFF8BC542560DFF88844DFF8C45475
:1015A0002560DFF88044DFF8C4542560DFF87C4410
:1015B000DFF890542560DFF87444DFF8A854256004
:1015C000DFF86844DFF890542560DFF86044DFF806
:1015D0007C542560DFF85444DFF88454256070475C
:1015E000DFF84044DFF874542560DFF83844DFF852
:1015F00070542560DFF82C44DFF854542560DFF880
:101600002444DFF860542560DFF81844DFF86054A4
:101610002560DFF81844DFF850542560DFF80C44EB
:10162000DFF840542560DFF80444DFF82C542560CF
:10163000FE4CDFF818542560FC4CDFF8245425607C
:101640007047F84CDFF814542560F64CDFF810545E
:101650002560F44CFE4D2560F24CF94D2560F14CAF
:10166000DFF808542560F14CFF4D2560EF4CFD4D2F
:101670002560EE4CF84D2560EC4CF44D2560EB4CAC
:10168000F74D25607047E74CF44D2560E54CF44D6F
:101690002560E44CEE4D2560E24CF24D2560E14CB6
:1016A000F24D2560E14CF04D2560E04CED4D25609C
:1016B000DE4CE24D2560DD4CE44D2560DB4CE84D11
:1016C00025607047D74CE54D2560D64CE44D25602C
:1016D000D44CDF4D2560D34CE24D2560D14CE34D19
:1016E0002560D24CE04D2560D04CDE4D2560CF4CBE
:1016F000D94D2560CD4CD54D2560CC4CD84D2560BD
:10170000704743F63002C4F20202116841F0010151
:10171000116043F63002C4F20202116841F0040184
:10172000116040F60002C4F20202116821F4407117
:101730001160116841F480711160516821F010014D
:101740005160916821F440719160916841F4007199
:101750009160D16821F44071D160D16841F4807109
:10176000D16040F20002C4F20202116821F440513B
:101770001160116841F480511160516821F04001FD
:101780005160916821F440519160916841F4005199
:101790009160D16821F44051D160D16841F4805109
:1017A000D16040F60002C4F20202116821F44061E7
:1017B0001160116841F480611160516821F02001CD
:1017C0005160916821F440619160916841F4006139
:1017D0009160D16821F44061D160D16841F48061A9
:1017E000D16040F60002C4F20202116821F00C013F
:1017F0001160116841F004011160516821F002018B
:101800005160916821F00C019160916841F00801EC
:101810009160D16821F00C01D160D16841F00401E0
:10182000D16040F60002C4F20202116821F03001DA
:101830001160116841F010011160516821F004013C
:101840005160916821F030019160916841F0200170
:101850009160D16821F03001D160D16841F0100170
:10186000D16040F20002C4F20202116821F00301CB
:101870001160116841F001011160516821F001010E
:101880005160916821F003019160916841F002017B
:101890009160D16821F00301D160D16841F001016C
:1018A000D16040F60002C4F20202116821F0C001CA
:1018B0001160116841F040011160516821F0080188
:1018C0005160916821F0C0019160916841F0800100
:1018D0009160D16821F0C001D160D16841F0400130
:1018E000D16040F20002C4F20202116821F44041CA
:1018F0001160116841F480411160516821F080014C
:101900005160916821F440419160916841F4004137
:101910009160D16821F44041D160D16841F48041A7
:10192000D16040F20002C4F20202116821F4407159
:101930001160116841F480711160516821F010014B
:101940005160916821F440719160916841F4007197
:101950009160D16821F44071D160D16841F4807107
:10196000D16040F60002C4F20202116821F00301C6
:101970001160116841F001011160516821F001010D
:101980005160916821F003019160916841F002017A
:101990009160D16821F00301D160D16841F001016B
:1019A000D16040F20002C4F20202116821F00C0181
:1019B0001160116841F004011160516821F00201C9
:1019C0005160916821F00C019160916841F008012B
:1019D0009160D16821F00C01D160D16841F004011F
:1019E000D16040F20002C4F20202116821F44061A9
:1019F0001160116841F480611160516821F020018B
:101A00005160916821F440619160916841F40061F6
:101A10009160D16821F44061D160D16841F4806166
:101A2000D1607047180002400000400018080240D2
:101A3000000002004000000002000000000004005E
:101A400000000100000008000000800000001000FD
:101A500020000000000020000400000080000000C2
:101A600010000000010000000800000082000000DB
:101A700000008200000000000000000000000000E4
:101A800043F63002C4F20202116841F00201116013
:101A900043F63002C4F20202116841F00401116001
:101AA00043F63002C4F20202116841F008011160ED
:101AB00040F20042C4F20202116821F44021116098
:101AC000116841F480211160516821F40071516066
:101AD000916821F440219160916841F40021916066
:101AE000D16821F44021D160D16841F48021D160D6
:101AF00040F20042C4F20202116821F003011160B9
:101B0000916821F003019160916841F002019160B8
:101B1000D16821F00301D160D16841F00101D160A9
:101B200040F60042C4F20202116821F03001116057
:101B3000916821F030019160916841F0200191603D
:101B4000D16821F03001D160D16841F01001D1603D
:101B500040F20042C4F20202116821F00C0111604F
:101B6000916821F00C019160916841F00801916049
:101B7000D16821F00C01D160D16841F00401D1603D
:101B800040F20042C4F20202116821F44051116097
:101B9000916821F440519160916841F40051916045
:101BA000D16821F44051D160D16841F48051D160B5
:101BB00040F60002C4F20202116821F440111160E3
:101BC000116841F480111160516821F48061516005
:101BD000916821F440119160916841F40011916085
:101BE000D16821F44011D160D16841F48011D160F5
:101BF00040F60002C4F20202116821F440011160B3
:101C0000116841F480011160516821F40061516054
:101C1000916821F440019160916841F40001916064
:101C2000D16821F44001D160D16841F48001D160D4
:101C300040F60002C4F20202116821F04071116006
:101C4000916821F040719160916841F0007191605C
:101C5000D16821F04071D160D16841F08071D160CC
:101C600040F20042C4F20202116821F440611160A6
:101C7000916821F440619160916841F40061916044
:101C8000D16821F44061D160D16841F48061D160B4
:101C900040F20042C4F202024FF40071916140F63A
:101CA0000002C4F202024FF48061916140F600022A
:101CB000C4F202024FF4006191617047A0F101018A
:101CC00001F00F014FEA41018F4400BF0AE015E027
:101CD00021E02DE039E045E051E05DE069E075E0AC
:101CE00081E08DE04D4C4E4D25604E49086810F066
:101CF00001000046494C4C4D25607047474C484D0B
:101D000025604A49086810F004004FEA9000434CEF
:101D1000454D25607047414C414D2560414908685B
:101D200010F002004FEA50003C4C3F4D25607047D8
:101D30003A4C3B4D25603B49086810F040004FEAA3
:101D40009010364C384D25607047394C394D256020
:101D50003449086810F001004FEA0000344C364D59
:101D600025607047324C334D25603049086810F0CB
:101D700004004FEA90002E4C2F4D256070472C4CEC
:101D80002C4D25602749086810F002004FEA5000EA
:101D9000274C294D25607047254C264D256021494B
:101DA000086810F040004FEA9010214C224D256049
:101DB00070471F4C214D25601A49086810F001003A
:101DC0004FEA00001A4C1E4D25607047184C1B4D01
:101DD00025601649086810F004004FEA9000144C82
:101DE000174D25607047124C144D25600D49086849
:101DF00010F002004FEA50000D4C114D2560704765
:101E00000B4C0E4D25600749086810F040004FEA62
:101E10009010074C0A4D25607047000018040240DE
:101E2000000000021004024000020000100C0240FA
:101E30001808024000000004000400000000000830
:101E400000080000AFF30080AFF30080AFF3008024
:101E500043F63002C4F20202116841F00101116040
:101E600040F20002C4F20202116821F00301116085
:101E7000916821F003019160916841F00201916045
:101E8000D16821F00301D160704740F20002C4F232
:101E90000202106910F001004FEA0000704700BF15
:101EA00040F60042C4F202024FF480519161704743
:101EB00040F60042C4F202024FF4005191617047B3
:101EC00040F60042C4F202024FF480419161704733
:101ED00040F60042C4F202024FF4004191617047A3
:101EE00040F60042C4F202024FF080519161704707
:101EF00040F60042C4F202024FF000519161704777
:101F000040F60042C4F202024FF0804191617047F6
:101F100040F60042C4F202024FF000419161704766
:101F200043F63002C4F20202116841F00801116068
:101F300040F60042C4F20202116821F040711160C3
:101F4000116841F080711160516821F48051516035
:101F5000916821F040719160916841F00071916049
:101F6000D16821F04071D160D16841F08071D160B9
:101F700040F60042C4F20202116821F040411160B3
:101F8000116841F080411160516821F400415160B5
:101F9000916821F040419160916841F00041916069
:101FA000D16821F04041D160D16841F08041D160D9
:101FB00040F60042C4F20202116821F04061116053
:101FC000116841F080611160516821F40051516045
:101FD000916821F040619160916841F000619160E9
:101FE000D16821F04061D160D16841F08061D16059
:101FF00040F60042C4F20202116821F04051116023
:10200000116841F080511160516821F480415160A4
:10201000916821F040519160916841F000519160C8
:10202000D16821F04051D160D16841F08051D16038
:1020300040F60042C4F20202116821F040411160F2
:10204000116841F080411160516821F400415160F4
:10205000916821F040419160916841F000419160A8
:10206000D16821F04041D160D16841F08041D16018
:10207000704700BFAFF30080AFF30080AFF3008084
:1020800038B50546FEF70BFE40F23404C2F20004F8
:10209000236803F0030355F82300FEF70BFE2068C6
:1020A00000F00300FFF72AFAFEF7EEFD236803F1C4
:1020B0000103236038BD00BF704700BF42F24633C2
:1020C000C0F20103013BFDD1704700BF30B401F104
:1020D00010014FF0040246F26765C6F2666585FBA3
:1020E00000344FEAE073C3EBA40303EB8304A0EBDB
:1020F000440041F8040D1846013AF0D130BC704755
:10210000F8B5634C4FF4F443C0F60323236000F0AA
:10211000B1F922684FF47A74B2FBF4F222F07F42F4
:1021200002F1FF324EF21003CEF200035A604FF478
:102130006D42CEF200024FF0F00182F823104FF012
:1021400000029A604FF007021A60FFF7E9FEFFF7FE
:102150007FFEFFF795FCFFF7D4FA4FF01F00FEF764
:10216000A9FD4FF00500FFF7C9F94A4B1B684FF076
:102170001F02DA609A605A601A60FEF785FD4FF41C
:102180006053C4F202031A6B42F008021A634FF460
:102190004063C4F202031A6842F080421A60FEF7FC
:1021A00041FD4FF010002146FEF746FDFEF74AFDC7
:1021B0004FF07D064FF00104374D364F304629462B
:1021C000FFF784FF2046FFF779FD002854D1204611
:1021D000FFF774FD00284FD104F1FF330B2B49D8D2
:1021E000DFE803F006101A222A313940484A4A4AE9
:1021F0002B68082B92BF06F57A76A6F50C56283E7A
:102200003AD840E02B6823B906F50C5606F12806AB
:1022100039E0A6F57A762FE06B68082B94BF643618
:10222000A6F5617628D82EE06B6813B906F56176BD
:1022300029E0A6F164061FE0AB68082B94BF0A36BC
:102240005A3E19D81FE0AB6813B906F15A061AE0D6
:10225000A6F10A0610E0EB68082B94BF0136093E90
:102260000AD810E0EB6813B906F109060BE006F195
:10227000FF3601E04FF07D063D6004F101040C2CB7
:10228000C8BF01249AE73D6004F1010496E700BF4E
:1022900020000020380000201000002040F23C0305
:1022A000C2F200031A6802F101021A60704700BF0F
:1022B00008B54FF080431B8A13F0010F0DD04FF487
:1022C0004063C4F2020348F200021A8340F238036A
:1022D000C2F200031868FFF7D3FE4FF08042138A62
:1022E00023F001034FEA03434FEA1343138208BD6F
:1022F00008B54FF48050FEF733F9E8B14FF4806031
:10230000C4F202004FF02001FEF76EF840B94FF022
:102310000100FEF749FC4FF00200FEF759FC07E010
:102320004FF00200FEF740FC4FF00100FEF750FCBA
:102330004FF48050FEF724F908BD00BF82B04FF47F
:102340006D43CEF20003D3F8882042F47002C3F844
:1023500088204FF46053C4F202031A6842F001026D
:102360001A604FF000029A60196821F0847121F41C
:102370008031196043F21001C2F2004159601968BE
:1023800021F480211960DA60009201921A6842F407
:1023900080321A604FF46052C4F20202136803F4F0
:1023A00000330193009B03F101030093019B1BB9D0
:1023B000009BB3F5A06FF1D14FF46053C4F2020358
:1023C0001B6813F4003F14BF012300230193019BFA
:1023D000012B46D14FF46053C4F202031A6C42F051
:1023E00080521A644FF4E042C4F20002116841F4D2
:1023F000804111609A689A609A6842F400429A603B
:102400009A6842F4A0529A6045F21942C0F24072B2
:102410005A601A6842F080721A604FF46052C4F237
:102420000202136813F0007FFBD04FF47053C4F224
:10243000020340F205621A604FF46053C4F20203D3
:102440009A6822F003029A609A6842F002029A6047
:102450004FF46052C4F20202936803F00C03082B9D
:10246000FAD14FF46D43CEF200034FF000629A6050
:1024700002B070474FF46053C4F202039B6803F04C
:102480000C03042B0DD0082B15D0002B44D140F2A7
:102490002003C2F200034FF41052C0F2F4021A609B
:1024A00043E040F22003C2F200034FF49052C0F226
:1024B0007A021A6039E04FF46053C4F2020359689B
:1024C0005B6803F03F0311F4800F4FF46052C4F2D5
:1024D00002025068C0F3881019BF4FF49051C0F247
:1024E0007A014FF41051C0F2F401B1FBF3F202FB98
:1024F00000F24FF46053C4F20203596840F2200323
:10250000C2F20003C1F3014101F101014FEA4101AF
:10251000B2FBF1F21A6008E040F22003C2F20003BD
:102520004FF41052C0F2F4021A604FF46053C4F238
:1025300002039A68C2F3031240F22003C2F20003BE
:102540009A181279196821FA02F21A60704700BFCE
:102550000F490E4A0F4B5B1A05D012F8014B01F8D8
:10256000014B013BF9DC0C490C4B5B1A05D04FF0D9
:10257000000201F8012B013BFBDCFFF7DFFE4FF00F
:1025800000004FF00001FFF7BBFDFEE7A2250008A9
:10259000000000203400002034000020380000201B
:0225A000704782
:1025A20000000000010203040102030406070809F7
:1025B2000000000001000000020000000500000011
:1025C200007A030A00000000000000000102030478
:0825D2000607080900000000E3
:040000050800255179
:00000001FF
