:020000040800F2
:10000000000002209D010008710400087D04000822
:10001000850400088D040008950400080000000015
:100020000000000000000000000000009D04000827
:10003000A904000800000000B5040008C10400087D
:100040000902000809020008090200080902000864
:10005000090200080902000809020008CD0400088E
:100060000902000809020008090200089D1C000896
:100070000902000809020008090200080902000834
:100080000902000809020008090200080902000824
:100090000902000809020008090200080902000814
:1000A0000902000809020008090200080902000804
:1000B00009020008090200083505000809020008C5
:1000C00009020008090200080902000809020008E4
:1000D00009020008090200080902000809020008D4
:1000E00009020008090200080902000809020008C4
:1000F000090200080902000809020008911C000812
:10010000090200080902000809020008A91C0008E9
:100110000902000809020008090200080902000893
:100120000902000809020008090200080902000883
:100130000902000809020008090200080902000873
:100140000902000809020008090200080902000863
:100150000902000809020008090200080902000853
:100160000902000809020008090200080902000843
:100170000902000809020008090200080902000833
:100180000902000809020008090200080902000823
:100190000902000809020008090200081649154A68
:1001A000164B5B1A05D012F8014B01F8014B013BCD
:1001B000F9DC1349134B5B1A05D04FF0000201F82C
:1001C000012B013BFBDC00F073FA4FF46D43CEF2E0
:1001D00000034FF46D42CEF20002D2F8882042F4C0
:1001E0007002C3F888204FF000004FF0000100F0CB
:1001F0006DF8FEE780EB0F0800000020780000207B
:1002000078000020980000207047000080B483B080
:1002100000AF03463960FB7197F90730002B10DA05
:100220004FF46D43CEF20003FA7902F00F02A2F10F
:1002300004013A68D2B24FEA0212D2B25B181A76BF
:100240000DE04FF46143CEF2000397F907103A68CE
:10025000D2B24FEA0212D2B25B1883F8002307F140
:100260000C07BD4680BC704780B582B000AF786097
:100270007A686FF07F439A4202D94FF001031FE082
:100280004EF21003CEF200037A6822F07F4202F1B0
:10029000FF325A604FF0FF304FF00F01FFF7B6FF0B
:1002A0004EF21003CEF200034FF000029A604EF2BD
:1002B0001003CEF200034FF007021A604FF0000364
:1002C000184607F10807BD4680BD00BF80B500AFE6
:1002D0004FF0010000F0FCFD4FF0000000F0F8FDD1
:1002E0004FF0020000F0F4FD4FF0030000F0F0FDCD
:1002F0004FF0000000F022FE40F29800C2F2000031
:1003000006F09AFC40F29803C2F200035A6848F2E1
:100310001F53C5F2EB13A3FB02134FEA5313184606
:10032000FFF7A2FF00F014F840F27803C2F20003D6
:100330004FF000021A7040F27B03C2F200034FF04C
:1003400007021A704BF6803000F0A6FBFEE700BFF4
:1003500080B58AB000AF4FF00003FB844FF004007B
:100360004FF0010106F040FE4FF4A06002F094FE51
:100370004FF01E033B704FF000037B704FF0000303
:10038000BB704FF00103FB703B46184602F098FE2D
:100390004FF0010000F09CFD4FF0000000F098FDD0
:1003A0004FF0030000F094FD40F20403C2F200039A
:1003B0001A6840F60D03C1F68163A3FB02134FEAEE
:1003C00013439BB203F1FF33FB844FF6FF73BB6013
:1003D000FB8CBB804FF00003BB814FF00003FB8020
:1003E00007F104034FF40060C4F20000194607F05F
:1003F00055FE4FF40060C4F200004FF0010107F019
:100400008BFF4FF000033B824FF001037B8240F2F1
:100410000003C2F200031B889BB2BB614FF00003D4
:10042000BB8307F110034FF40060C4F200001946CB
:1004300007F0EAFF4FF40060C4F200004FF0000143
:1004400008F02EFB4FF40060C4F200004FF00201F0
:100450004FF0010208F0F2FF4FF40060C4F2000018
:100460004FF0010107F0B0FF07F12807BD4680BD3E
:1004700080B400AFBD4680BC704700BF80B400AF01
:10048000FEE700BF80B400AFFEE700BF80B400AF5E
:10049000FEE700BF80B400AFFEE700BF80B400AF4E
:1004A000BD4680BC704700BF80B400AFBD4680BC75
:1004B000704700BF80B400AFBD4680BC704700BF2E
:1004C00080B500AF00F00EFC80BD00BF80B500AF6E
:1004D0004FF0020004F072FC0346002B28D040F2DB
:1004E0007A03C2F200031B78DBB2012B0ED140F27B
:1004F0000203C2F200034FF001021A7040F27A03C5
:10050000C2F200034FF000021A700DE040F2020345
:10051000C2F200034FF000021A7040F27A03C2F2F6
:1005200000034FF001021A704FF0020004F074FC57
:1005300080BD00BF80B582B000AF4FF00003FB71FB
:1005400040F28403C2F200031B78DBB2002B12D00E
:1005500007F1070318464FF039014FF0010200F090
:1005600023FF40F2AC00C2F200004FF027014FF031
:10057000060200F019FF4FF40060C4F200004FF0D3
:10058000020108F0BFFF0346002B00F08D804FF4FE
:100590000060C4F200004FF0020108F0E3FF40F2F7
:1005A0007B03C2F200031B78DBB2032B0CD14FF0AC
:1005B000010000F0F7FC4FF0030000F0D9FC4FF011
:1005C000000000F0D5FC4EE040F27B03C2F20003D5
:1005D0001B78DBB2042B0CD14FF0000000F0E2FCE2
:1005E0004FF0030000F0C4FC4FF0010000F0C0FC2D
:1005F00039E040F27B03C2F200031B78DBB2062B2A
:100600000CD14FF0010000F0B3FC4FF0000000F0FF
:10061000AFFC4FF0030000F0C5FC24E040F27B0388
:10062000C2F200031B78DBB2002B04D14FF00300B1
:1006300000F084FC17E040F27B03C2F200031B7859
:10064000DBB2072B0FD14FF0010000F091FC4FF00F
:10065000000000F08DFC4FF0020000F089FC4FF02C
:10066000030000F085FC4FF40060C4F2000008F0C5
:100670008BFD03469AB240F27C03C2F200031A805B
:1006800040F27C03C2F200031B881A4640F20003CA
:10069000C2F200031B889BB2D3184FF40060C4F26F
:1006A0000000194608F04CF907F10807BD4680BD67
:1006B00080B500AF4FF46053C4F202034FF46052B0
:1006C000C4F20202126842F001021A604FF4605351
:1006D000C4F202034FF000029A604FF46053C4F278
:1006E00002034FF46052C4F20202126822F08472D4
:1006F00022F480321A604FF46053C4F2020343F2D2
:100700001002C2F200425A604FF46053C4F2020376
:100710004FF46052C4F20202126822F480221A607E
:100720004FF46053C4F202034FF00002DA6000F0AD
:10073000C3F84FF46D43CEF200034FF000629A60AD
:1007400080BD00BF80B487B000AF4FF000033B61B5
:100750004FF000037B614FF00203FB604FF000039A
:10076000BB604FF002037B604FF46053C4F202039E
:100770009B6803F00C033B613B69042B0DD0082BF5
:1007800015D0002B6BD140F20403C2F200034FF4EA
:100790001052C0F2F4021A606BE040F20403C2F29D
:1007A00000034FF49052C0F27A021A6061E04FF4F5
:1007B0006053C4F202035B6803F480034FEA93536F
:1007C000BB604FF46053C4F202035B6803F03F0365
:1007D0007B60BB68002B15D04FF49053C0F27A03B6
:1007E0007A68B3FBF2F24FF46053C4F202035B6821
:1007F000194647F6C0730B404FEA931303FB02F30D
:100800007B6114E04FF41053C0F2F4037A68B3FB39
:10081000F2F24FF46053C4F202035B68194647F6E4
:10082000C0730B404FEA931303FB02F37B614FF459
:100830006053C4F202035B6803F440334FEA13438E
:1008400003F101034FEA4303FB607A69FB68B2FBE3
:10085000F3F240F20403C2F200031A6009E040F22E
:100860000403C2F200034FF41052C0F2F4021A6003
:1008700000BF4FF46053C4F202039B6803F0F0031F
:100880004FEA131240F20803C2F200039B5CDBB292
:100890003B6140F20403C2F200031A683B6922FA8A
:1008A00003F240F20403C2F200031A6007F11C07CE
:1008B000BD4680BC704700BF80B483B000AF4FF02E
:1008C00000037B604FF000033B604FF46053C4F2C1
:1008D00002034FF46052C4F20202126842F4803202
:1008E0001A604FF46053C4F202031B6803F4003330
:1008F0003B607B6803F101037B603B68002B03D105
:100900007B68B3F5A06FECD14FF46053C4F20203DF
:100910001B6803F40033002B03D04FF001033B604E
:1009200002E04FF000033B603B68012B40F0828007
:100930004FF46053C4F202034FF46052C4F2020257
:10094000126C42F080521A644FF4E043C4F2000388
:100950004FF4E042C4F20002126842F480421A608E
:100960004FF46053C4F202034FF46052C4F2020227
:1009700092689A604FF46053C4F202034FF46052DD
:10098000C4F20202926842F400429A604FF460534B
:10099000C4F202034FF46052C4F20202926842F4BD
:1009A000A0529A604FF46053C4F2020345F2084229
:1009B000C0F240725A604FF46053C4F202034FF425
:1009C0006052C4F20202126842F080721A6000BFE4
:1009D0004FF46053C4F202031B6803F00073002B52
:1009E000F6D04FF47053C4F2020340F205621A606D
:1009F0004FF46053C4F202034FF46052C4F2020297
:100A0000926822F003029A604FF46053C4F202032A
:100A10004FF46052C4F20202926842F002029A60FD
:100A200000BF4FF46053C4F202039B6803F00C0351
:100A3000082BF6D14FF46053C4F202034FF4605216
:100A4000C4F20202926822F400029A604FF46053EA
:100A5000C4F202034FF48142C3F20002C3F88420BF
:100A60004FF46053C4F202034FF46052C4F2020226
:100A7000126842F080621A6000BF4FF46053C4F203
:100A800002031B6803F00063002BF6D007F10C078C
:100A9000BD4680BC704700BF80B582B000AF7860B3
:100AA00040F28403C2F200034FF001021A7040F2D8
:100AB0007803C2F200034FF000021A70786800F069
:100AC0008DF8324841F63031C0F20F014FF03A0252
:100AD00000F0A8F840F27B03C2F200034FF00602D8
:100AE0001A7000E000BF40F27803C2F200031B78E6
:100AF000DBB2002B3FD140F20203C2F200031B78AD
:100B0000DBB2002B17D140F27B03C2F200034FF09F
:100B100000021A7040F20203C2F200031B78DBB23B
:100B2000184600F035F840F20203C2F200034FF01D
:100B300002021A70D6E740F20203C2F200031B78E9
:100B4000DBB2012BCED140F27B03C2F200034FF0A7
:100B500006021A7040F20203C2F200031B78DBB2F5
:100B6000184600F015F840F20203C2F200034FF0FD
:100B700002021A70B6E700F029F840F27B03C2F2D5
:100B800000034FF004021A70ACE700BF4C9C000851
:100B900080B582B000AF0346FB71FB79184600F0C8
:100BA00049FF07F10807BD4680BD00BF80B582B090
:100BB00000AF0346FB71FB79184600F075FF4FF05C
:100BC0000003184607F10807BD4680BD80B500AF99
:100BD0004FF0020000F048FF80BD00BF80B582B03A
:100BE00000AF786000F096F800F020F94FF00100B7
:100BF00000F0DEFD40F21803C2F200031B78DBB206
:100C00004FF0040019467A6800F08AFE4FF00003A6
:100C1000184607F10807BD4680BD00BF80B400AF8D
:100C2000FEE700BF80B584B000AFF860B9607A60BD
:100C3000BA687B68D31AF868194600F0AFFE4FF027
:100C40000003184607F11007BD4680BD80B582B08D
:100C500000AF78603960064841F63031C0F20F01CC
:100C60004FF03A02FFF7DEFF07F10807BD4680BDEF
:100C70004C9C000880B483B000AF7860396007F105
:100C80000C07BD4680BC704780B483B000AF78606D
:100C9000FEE700BF80B400AF4FF000031846BD462A
:100CA00080BC704780B400AF4FF000031846BD46CB
:100CB00080BC704780B483B000AF78607A6840F23F
:100CC0008C03C2F200031A6000BF40F28C03C2F230
:100CD00000031B68002BF8D107F10C07BD4680BC50
:100CE000704700BF80B400AF40F28C03C2F2000333
:100CF0001B68002B0BD040F28C03C2F200031B6870
:100D000003F1FF3240F28C03C2F200031A60BD46C9
:100D100080BC704780B584B000AF4FF00003FB7318
:100D20004FF040033B724FF000037B724FF007031C
:100D3000BB724FF00003FB724FF000033B7307F1EF
:100D40000803184600F0E6F94FF040033B714FF0FE
:100D500010037B714FF02003BB7107F104031846A9
:100D600000F032FA4FF03F03FB7307F10F03184610
:100D70004FF022014FF0010200F0DEFA4FF0500375
:100D8000FB7307F10F0318464FF038014FF00102D3
:100D900000F0D2FA4FF0AA03FB7307F10F031846D5
:100DA0004FF03B014FF0010200F0C6FA4FF00A038A
:100DB000FB7307F10F0318464FF03C014FF001029F
:100DC00000F0BAFA4FF04C03FB7307F10F0318461B
:100DD0004FF030014FF0010200F0AEFA4FF0030384
:100DE000FB7307F10F0318464FF03D014FF001026E
:100DF00000F0A2FA4FF07F03FB7307F10F031846D0
:100E00004FF03E014FF0010200F096FA4FF07F03E1
:100E1000FB7307F10F0318464FF03F014FF001023B
:100E200000F08AFA07F11007BD4680BD80B586B094
:100E300000AF4FF010004FF0010106F051F84FF4F1
:100E400080404FF0010106F0FBF84FF000033B75C6
:100E50004FF00003FB754FF003033B6107F11003F4
:100E60004FF48050C4F20200194604F0ABFD4FF07D
:100E700004004FF0010102F077F84FF002037B60AD
:100E80004FF000033B724FF008037B724FF00103F9
:100E9000BB7207F10403184603F08EFE4FF4806026
:100EA00002F0FAF84FF007033B734FF000037B7337
:100EB0004FF00003BB734FF00103FB7307F10C030A
:100EC000184602F0FDF807F11807BD4680BD00BFC7
:100ED00080B584B000AF0346FB71FA794EF6583303
:100EE000C0F60F0353F8223018464FF0010105F009
:100EF000F7FFFA794EF65033C0F60F0333F812308D
:100F0000BB604FF001033B734FF00003BB734FF026
:100F10000103FB734FF002037B73FA7940F21C0369
:100F2000C2F2000353F8222007F1080310461946C5
:100F300004F048FD07F11007BD4680BD80B483B0C2
:100F400000AF0346FB71FA7940F21C03C2F20003C2
:100F500053F82220F9794EF65033C0F60F0333F8D8
:100F60001130138307F10C07BD4680BC704700BFEA
:100F700080B483B000AF0346FB71FA7940F21C03E2
:100F8000C2F2000353F82220F9794EF65033C0F62E
:100F90000F0333F81130538307F10C07BD4680BCB3
:100FA000704700BF80B483B000AF0346FB71FA798D
:100FB00040F21C03C2F2000353F82220F97940F2F8
:100FC0001C03C2F2000353F821305B691946F8791B
:100FD0004EF65033C0F60F0333F810304B405361D8
:100FE00007F10C07BD4680BC704700BF80B588B0D4
:100FF00000AF02460B46FA71BB71FA794EF66C33BC
:10100000C0F60F0353F8223018464FF0010105F0E7
:1010100067FF4FF480404FF0010106F011F84FF0E8
:1010200000033B774FF00003FB77FA794EF6683305
:10103000C0F60F0333F81230BB61FA7940F22C038B
:10104000C2F2000353F8222007F118031046194694
:1010500004F0B8FCBB79012B3AD1FA794EF674331F
:10106000C0F60F039A5CF9794EF67833C0F60F0399
:101070005B5C1046194601F077FFFA794EF6703343
:10108000C0F60F0333F812303B614FF000033B759D
:101090004FF008037B754FF00103BB7507F1100398
:1010A000184603F089FDFA794EF67C33C0F60F033B
:1010B0009B5C3B734FF00F037B734FF00F03BB73CD
:1010C0004FF00103FB7307F10C03184601F0F8FF22
:1010D00007F12007BD4680BD80B582B000AF034652
:1010E000FB71FA7940F22C03C2F2000353F822207C
:1010F000F9794EF66833C0F60F0333F81130104615
:10110000194604F049FD0346184607F10807BD4695
:1011100080BD00BF80B584B000AF78604FF00003A1
:10112000FB7300F0EDF97B685A787B681B781343FA
:10113000DAB27B68DB781343DAB27B681B7913433E
:10114000DAB27B689B781343DBB2FB7307F10F03C2
:1011500018464FF020014FF0010200F0EDF807F1C2
:101160001007BD4680BD00BF80B584B000AF786079
:101170004FF00003FB7307F10F0318464FF02101F6
:101180004FF0010200F010F9FB7B23F02F03DBB2DC
:10119000FB737B681A787B685B781343DAB27B68F1
:1011A0009B781343DAB2FB7B1343DBB2FB7307F18B
:1011B0000F0318464FF021014FF0010200F0BCF878
:1011C00007F11007BD4680BD80B584B000AF7860E0
:1011D0004FF00003FB7307F10F0318464FF038017F
:1011E0004FF0010200F0E0F87B681A787B685B78CA
:1011F0001343DAB27B689B781343DBB2FB7307F1CE
:101200000F0318464FF038014FF0010200F094F838
:1012100007F11007BD4680BD80B584B000AF03461E
:10122000FB7107F10F0318464FF020014FF0010248
:1012300000F0BAF8FB7B23F04003DBB2FB73FA7BD0
:10124000FB791343DBB2FB7307F10F0318464FF032
:1012500020014FF0010200F06FF807F11007BD46C2
:1012600080BD00BF80B584B000AF0346FB7107F1BD
:101270000F0318464FF020014FF0010200F094F8E0
:10128000FB7B03F07F03DBB2FB73FA7BFB79134339
:10129000DBB2FB7307F10F0318464FF020014FF04C
:1012A000010200F049F807F11007BD4680BD00BFFC
:1012B00080B584B000AF0346FB7107F10F031846F9
:1012C0004FF020014FF0010200F06EF8FB7B23F09D
:1012D0002003DBB2FB73FA7BFB791343DBB2FB73B6
:1012E00007F10F0318464FF020014FF0010200F004
:1012F00023F807F11007BD4680BD00BF80B582B05E
:1013000000AF07F1070318464FF021014FF001022B
:1013100000F04AF8FB7943F04003DBB2FB7107F1C0
:10132000070318464FF021014FF0010200F004F8C6
:1013300007F10807BD4680BD80B582B000AF786078
:1013400013460A46FA703B803B88012B03D9FB7891
:1013500043F04003FB704FF48050C4F202004FF0A2
:10136000080104F07FFCFB78184600F0AFF90CE0B0
:101370007B681B78184600F0A9F93B8803F1FF331E
:101380003B807B6803F101037B603B88002BEFD13E
:101390004FF48050C4F202004FF0080104F054FCF6
:1013A00007F10807BD4680BD80B582B000AF786008
:1013B00013460A46FA703B803B88012B04D9FB7820
:1013C00063F03F03FB7003E0FB7863F07F03FB7087
:1013D0004FF48050C4F202004FF0080104F042FCC8
:1013E000FB78184600F072F90FE04FF0000000F0B3
:1013F0006DF903461A467B681A703B8803F1FF3388
:101400003B807B6803F101037B603B88002BECD1C0
:101410004FF48050C4F202004FF0080104F014FCB5
:1014200007F10807BD4680BD80B586B000AF786083
:101430004FF00003FB7507F10F0318464FF0200132
:101440004FF00102FFF7B0FF07F1100318464FF00D
:1014500029014FF00602FFF7A7FFFB7B03F02003F3
:10146000002B02D0202B23D045E04FF00003FB756A
:101470001AE0FB7D4FEA430307F11802D31813F873
:10148000083CDBB25AB213464FEAC3039B184FEA3B
:1014900043031A467B681A607B6803F104037B6090
:1014A000FB7D03F10103FB75FB7D022BE1D923E0FA
:1014B0004FF00003FB751AE0FB7D4FEA430307F191
:1014C0001802D31813F8083CDBB25AB213464FEA9D
:1014D000C3039B184FEAC3031A467B681A607B68F4
:1014E00003F104037B60FB7D03F10103FB75FB7DCE
:1014F000022BE1D900E000BF07F11807BD4680BD0F
:1015000080B588B000AF4FF480504FF0010105F076
:1015100097FD4FF001004FF0010105F0E1FC4FF0A5
:1015200010004FF0010105F0DBFC4FF010004FF010
:10153000010105F0D5FC4FF010004FF0010105F05E
:10154000CFFC4FF00000C4F202004FF005014FF055
:10155000050204F0CDFB4FF00000C4F202004FF092
:1015600006014FF0050204F0C3FB4FF00000C4F287
:1015700002004FF007014FF0050204F0B9FB4FF0F5
:1015800002033B774FF00003BB774FF00203FB777A
:101590004FF002037B774FF02003BB6107F1180384
:1015A0004FF00000C4F20200194604F00BFA4FF0AD
:1015B0008003BB6107F118034FF00000C4F2020082
:1015C000194604F0FFF94FF04003BB6107F118031F
:1015D0004FF00000C4F20200194604F0F3F94FF492
:1015E0004050C4F2010005F0C9FF4FF00003BB807A
:1015F0004FF000033B814FF000037B814FF000036D
:10160000BB814FF40073FB814FF008033B824FF026
:1016100000037B824FF00703BB824FF48273FB8091
:1016200007F104034FF44050C4F20100194605F0DD
:10163000E9FF4FF44050C4F201004FF0010106F001
:101640007FF94FF00803BB614FF001033B774FF088
:101650000003BB774FF002037B7707F118034FF4C9
:101660008050C4F20200194604F0ACF94FF48050E7
:10167000C4F202004FF0080104F0E6FA4FF0010353
:10168000BB614FF000033B774FF00003BB774FF097
:1016900002037B774FF00003FB7707F118034FF449
:1016A0008050C4F20200194604F08CF94FF0020396
:1016B000BB6107F118034FF48050C4F202001946D1
:1016C00004F080F907F12007BD4680BD80B582B0E7
:1016D00000AF0346FB7140F23003C2F200034FF447
:1016E00080521A6017E040F23003C2F200031B6818
:1016F000002B14BF00220122D2B203F1FF3140F2CD
:101700003003C2F200031960002A04D0FFF786FA02
:101710000346DBB246E04FF44050C4F201004FF004
:10172000020106F00DFB0346002BDCD0FB799BB2D7
:101730004FF44050C4F20100194606F03FFA40F25F
:101740003003C2F200034FF480521A6017E040F2F7
:101750003003C2F200031B68002B14BF00220122D9
:10176000D2B203F1FF3140F23003C2F2000319603C
:10177000002A04D0FFF752FA0346DBB212E04FF41E
:101780004050C4F201004FF0010106F0D9FA0346BF
:10179000002BDCD04FF44050C4F2010006F000FAF8
:1017A0000346DBB2184607F10807BD4680BD00BFFF
:1017B00080B483B000AF786040F24003C2F200030F
:1017C0007A681A6040F24003C2F200031B68012BE2
:1017D0004AD140F24403C2F200034FF400121A60EF
:1017E00040F24803C2F2000346F2B802C4F2020219
:1017F0001A6040F24C03C2F2000343F60C42C4F2FA
:1018000000021A6040F29403C2F200034FF000029B
:101810001A6040F25003C2F200034FF02F021A6028
:1018200040F25403C2F200034FF020521A6040F21B
:101830005803C2F200034FF010521A6040F25C03EA
:10184000C2F200034FF001521A6040F26003C2F28C
:1018500000034FF008521A6040F26403C2F2000322
:101860004FF004521A6056E07B68022B53D140F2CD
:101870004403C2F200034FF400121A6040F248031E
:10188000C2F2000346F21002C4F202021A6040F2F1
:101890004C03C2F2000347F20C42C4F200021A6089
:1018A00040F29403C2F200034FF000021A6040F2CB
:1018B0005003C2F200034FF00B021A6040F25403CF
:1018C000C2F200034FF02002C1F200021A6040F29F
:1018D0005803C2F200034FF01002C1F200021A6076
:1018E00040F25C03C2F200034FF00102C1F2800239
:1018F0001A6040F26003C2F200034FF00802C1F226
:1019000000021A6040F26403C2F200034FF00402C6
:10191000C1F280021A6007F10C07BD4680BC704717
:1019200080B582B000AF0B463A600246FA807B7108
:101930007B79642B11D87A7913464FEA03239A1ADC
:1019400048F21F53C5F2EB1383FB02134FEA6311F6
:101950004FEAE273CB1ADBB201E04FF06403FA887E
:10196000104619463A6800F0C7F90346002B02D02A
:101970004FF0010303E001F08FF84FF00003184629
:1019800007F10807BD4680BD80B500AF01F07AF9C8
:1019900000F086FA4FF00003184680BD80B582B093
:1019A00000AF7860396040F23403C2F200033A6855
:1019B0001A6000F093FA7A6839684FF6FF73C0F244
:1019C0000303994203D83B684FEA930301E04FF6C3
:1019D000FF731046194601F083F93B684FEA530242
:1019E00040F23403C2F2000319684FF6FF739942C4
:1019F00038BF0B46D21A40F23803C2F200031A6015
:101A000040F23403C2F200031A684FF6FF739A42A1
:101A100038BF13464FEA43037A68D21840F2B8033E
:101A2000C2F200031A604FF00003184607F10807DE
:101A3000BD4680BD80B582B000AF7860786800F0A8
:101A400055FA0346002B02D04FF0010306E07868F8
:101A50004FF0000101F0AEF94FF00003184607F116
:101A60000807BD4680BD00BF80B582B000AF78607A
:101A7000786800F07FFA0346002B02D04FF0010394
:101A80000DE001F0DFF940F23403C2F200031A68FE
:101A900040F23803C2F200031A604FF00003184608
:101AA00007F10807BD4680BD80B582B000AF034690
:101AB000FB71FB79642B11D8FA7913464FEA0323A3
:101AC0009A1A48F21F53C5F2EB1383FB02134FEA35
:101AD00063114FEAE273CB1ADBB201E04FF064030B
:101AE000184600F07FFA0346184607F10807BD467E
:101AF00080BD00BF80B582B000AF7860786800F02C
:101B0000B7FA0346184607F10807BD4680BD00BF77
:101B100080B500AF40F24803C2F200031A6840F2F9
:101B20005403C2F200031B681046194602F0D2FEAD
:101B30000346002B00F0AB8040F23803C2F20003F2
:101B40001B68002B00F0818000BF40F24803C2F206
:101B500000031B68184602F08DFE0346002BF4D1EB
:101B600040F24803C2F200031A6840F25403C2F282
:101B700000031B681046194602F0F0FE40F2B8035D
:101B8000C2F200031B681A4640F2F803C2F20003D7
:101B90009A6040F23803C2F200031A684FF6FF73EE
:101BA0009A4228BF1A4640F2F803C2F200031A61B3
:101BB00040F24803C2F200031B68184640F2F801E5
:101BC000C2F2000102F0E0FC40F24803C2F200035E
:101BD0001B6818464FF0010102F074FD40F2B80393
:101BE000C2F200031A6840F23803C2F20003196817
:101BF0004FF6FF73994238BF0B464FEA4303D218A2
:101C000040F2B803C2F200031A6040F23803C2F295
:101C100000031A6840F23803C2F2000319684FF655
:101C2000FF73994238BF0B46D21A40F23803C2F212
:101C300000031A6040F24803C2F200031B68184612
:101C40004FF0010102F03EFD21E040F24803C2F2F4
:101C500000031B6818464FF0000102F033FD40F20C
:101C60004803C2F200031A6840F25403C2F20003B0
:101C70001B681046194602F071FE40F2B803C2F22A
:101C800000031B6818464FF00001FEF7DFFF80BD20
:101C900080B500AFFFF73CFF80BD00BF80B500AF4F
:101CA000FFF736FF80BD00BF80B500AF4FF4705026
:101CB000C4F200004FF0020106F042F80346002B88
:101CC00018D040F24003C2F200031B68022B07D178
:101CD000FEF7E0FF03464FF00400194602F0C2F998
:101CE000FEF7D8FF03464FF47050C4F200001946C7
:101CF00005F064FF80BD00BF80B584B000AF0B4627
:101D00003A600246FA807B714FF00003FB6000F0FE
:101D10007FFD00F0D7F900F0D3FC4FF002004FF048
:101D2000010100F0EBF90346FA68D318FB604FF0AD
:101D300004004FF0AF0100F0E1F90346FA68D31850
:101D4000FB6040F29003C2F200034FF0AF021A7042
:101D50004FF005004FF0810100F0D0F90346FA681A
:101D6000D318FB604FF006004FF0040100F0C6F9F5
:101D70000346FA68D318FB607B79184600F032F905
:101D800040F24003C2F200031B68022B31D14FF036
:101D900008004FF0010100F0B1F90346FA68D318CA
:101DA000FB604FF009004FF0010100F0A7F9034676
:101DB000FA68D318FB604FF00E004FF0C00100F03E
:101DC0009DF90346FA68D318FB604FF014004FF0FA
:101DD000000100F093F90346FA68D318FB604FF056
:101DE00015004FF0000100F089F90346FA68D31896
:101DF000FB604FF002004FF09E0100F07FF90346B8
:101E0000FA68D318FB604FF00A004FF0000100F0B1
:101E100075F90346FA68D318FB6040F24003C2F23A
:101E200000031B68022B09D04FF00E004FF0040195
:101E300000F064F90346FA68D318FB604FF02700FE
:101E40004FF0000100F05AF90346FA68D318FB601E
:101E50004FF01F004FF00F0100F050F90346FA68F1
:101E6000D318FB604FF01A004FF00A0100F046F95A
:101E70000346FA68D318FB604FF01B004FF00A01CD
:101E800000F03CF90346FA68D318FB60386800F0AC
:101E900055FCFB68184607F11007BD4680BD00BF22
:101EA00080B582B000AF4FF000037B6000F00AF90C
:101EB0004FF002004FF0010100F020F903467A686C
:101EC000D3187B6000F07AFD00F032FC00F088FC53
:101ED0007B68184607F10807BD4680BD80B400AF97
:101EE0004FF000031846BD4680BC704780B584B0F3
:101EF00000AF78604FF00003FB607B68002B12D1CD
:101F00004FF0010000F0B4F80346FA68D318FB6004
:101F10004FF002004FF0010100F0F0F80346FA68BC
:101F2000D318FB6020E04FF0000000F0A1F803465A
:101F3000FA68D318FB6040F29003C2F200031B78EA
:101F4000DBB24FF00400194600F0D8F80346FA68F7
:101F5000D318FB604FF002004FF09E0100F0CEF866
:101F60000346FA68D318FB60FB68184607F11007B0
:101F7000BD4680BD80B584B000AF78604FF00003EF
:101F8000FB604FF0010000F073F87B68022B0AD170
:101F90004FF002004FF09F0100F0B0F80346FA68DE
:101FA000D318FB6017E04FF002004FF09F0100F0E4
:101FB000A5F80346FA68D318FB6040F6FF7000F0FE
:101FC00059FD4FF44060C4F202004FF010014FF091
:101FD000000203F055FEFB68184607F11007BD46E6
:101FE00080BD00BF80B584B000AF0346FB714FF0E9
:101FF0000003FB60FB79E62B1AD9FB7903F1190387
:10200000DBB24FF02000194600F078F80346FA687A
:10201000D318FB60FB7903F11903DBB24FF0210009
:10202000194600F06BF80346FA68D318FB6019E014
:10203000FB7903F11903DBB24FF02000194600F0E1
:102040005DF80346FA68D318FB60FB7903F11903C6
:10205000DBB24FF02100194600F050F80346FA6851
:10206000D318FB60FB68184607F11007BD4680BD1A
:1020700080B584B000AF78604FF00003FB607B68F0
:10208000012B0AD14FF004004FF0FF0100F036F8A9
:102090000346FA68D318FB600EE040F29003C2F2E8
:1020A00000031B78DBB24FF00400194600F026F85D
:1020B0000346FA68D318FB60FB68184607F110075F
:1020C000BD4680BD80B500AF4FF44060C4F2020051
:1020D0004FF010014FF0000203F0D2FD44F6FF7004
:1020E00000F0C8FC4FF44060C4F202004FF0100151
:1020F0004FF0010203F0C4FD80BD00BF80B584B085
:1021000000AF02460B46FA71BB714FF00003FB6053
:1021100040F23C03C2F200034FF496121A6016E03C
:1021200040F23C03C2F200031B68002B14BF0022E4
:102130000122D2B203F1FF3140F23C03C2F20003AC
:102140001960002A03D0FEF7ADFD0346EEE04FF420
:10215000A840C4F200004FF4003104F089FA0346AD
:10216000002BDDD14FF4A840C4F200004FF0010174
:1021700003F070FF40F23C03C2F200034FF48052C0
:102180001A6016E040F23C03C2F200031B68002B09
:1021900014BF00220122D2B203F1FF3140F23C030E
:1021A000C2F200031960002A03D0FEF77BFD03464C
:1021B000BCE04FF4A840C4F200004FF00101C0F2AF
:1021C000030104F0F7F90346002BDBD04FF4A840DD
:1021D000C4F200004FF094014FF0000203F07AFFC8
:1021E00040F23C03C2F200034FF480521A6016E042
:1021F00040F23C03C2F200031B68002B14BF002214
:102200000122D2B203F1FF3140F23C03C2F20003DB
:102210001960002A03D0FEF745FD034686E04FF41F
:10222000A840C4F200004FF08201C0F2070104F0A0
:10223000C1F90346002BDBD0FB794FF4A840C4F270
:102240000000194604F0AAF840F23C03C2F2000371
:102250004FF480521A6016E040F23C03C2F20003D1
:102260001B68002B14BF00220122D2B203F1FF3100
:1022700040F23C03C2F200031960002A03D0FEF7CB
:1022800011FD034652E04FF4A840C4F200004FF0A5
:102290008001C0F2070104F08DF90346002BDBD06A
:1022A000BB794FF4A840C4F20000194604F076F858
:1022B00040F23C03C2F200034FF496121A6014E09D
:1022C00040F23C03C2F200031B68002B14BF002243
:1022D0000122D2B203F1FF3140F23C03C2F200030B
:1022E0001960002A01D0FEF7DDFC4FF4A840C4F2CB
:1022F00000004FF00401C1F2000104F0B9F90346F7
:10230000002BDDD04FF4A840C4F200004FF00101D3
:1023100003F0C0FEFB79184600F00EF80246BB79C8
:102320009A420CBF00230123FB60FB68184607F1AB
:102330001007BD4680BD00BF80B584B000AF034626
:10234000FB714FF00003FB6040F23C03C2F200035C
:102350004FF496121A6016E040F23C03C2F20003FA
:102360001B68002B14BF00220122D2B203F1FF31FF
:1023700040F23C03C2F200031960002A03D0FEF7CA
:1023800091FC034697E14FF4A840C4F200004FF4DB
:10239000003104F06DF90346002BDDD14FF4A84065
:1023A000C4F200004FF0010103F054FE40F23C0380
:1023B000C2F200034FF480521A6016E040F23C0370
:1023C000C2F200031B68002B14BF00220122D2B20C
:1023D00003F1FF3140F23C03C2F200031960002A0E
:1023E00003D0FEF75FFC034665E14FF4A840C4F25A
:1023F00000004FF00101C0F2030104F0DBF80346D6
:10240000002BDBD04FF4A840C4F200004FF0940141
:102410004FF0000203F05EFE40F23C03C2F2000304
:102420004FF480521A6016E040F23C03C2F20003FF
:102430001B68002B14BF00220122D2B203F1FF312E
:1024400040F23C03C2F200031960002A03D0FEF7F9
:1024500029FC03462FE14FF4A840C4F200004FF0DE
:102460008201C0F2070104F0A5F80346002BDBD07F
:10247000FB794FF4A840C4F20000194603F08EFF28
:1024800040F23C03C2F200034FF480521A6016E09F
:1024900040F23C03C2F200031B68002B14BF002271
:1024A0000122D2B203F1FF3140F23C03C2F2000339
:1024B0001960002A03D0FEF7F5FB0346FBE04FF45A
:1024C000A840C4F200004FF00401C1F2000104F082
:1024D000CFF80346002BDBD04FF4A840C4F2000035
:1024E0004FF0010103F0B6FD40F23C03C2F20003DD
:1024F0004FF480521A6016E040F23C03C2F200032F
:102500001B68002B14BF00220122D2B203F1FF315D
:1025100040F23C03C2F200031960002A03D0FEF728
:10252000C1FB0346C7E04FF4A840C4F200004FF0DF
:102530000101C0F2030104F03DF80346002BDBD09B
:102540004FF4A840C4F200004FF094014FF0010294
:1025500003F0C0FD40F23C03C2F200034FF480528E
:102560001A6016E040F23C03C2F200031B68002B25
:1025700014BF00220122D2B203F1FF3140F23C032A
:10258000C2F200031960002A03D0FEF78BFB03465A
:1025900091E04FF4A840C4F200004FF00201C1F2F4
:1025A000000104F065F80346002BDBD04FF4A8408F
:1025B000C4F200004FF0000103F0AAFD4FF4A8435D
:1025C000C4F200031B8B4FF4A840C4F200004FF08C
:1025D000010103F05FFD40F23C03C2F200034FF43F
:1025E00080521A6016E040F23C03C2F200031B68FE
:1025F000002B14BF00220122D2B203F1FF3140F2BE
:102600003C03C2F200031960002A03D0FEF74AFB24
:10261000034650E04FF4A840C4F200004FF04001E0
:10262000C1F2000104F024F80346002BDBD04FF484
:10263000A840C4F2000003F0C1FE0346FB6040F274
:102640003C03C2F200034FF480521A6016E040F2DD
:102650003C03C2F200031B68002B14BF00220122BE
:10266000D2B203F1FF3140F23C03C2F20003196021
:10267000002A03D0FEF716FB03461CE04FF4A843E4
:10268000C4F200031B889BB203F40073002BDED15D
:102690004FF4A840C4F200004FF0010103F038FDF0
:1026A0004FF4A840C4F200004FF48061C1F2000171
:1026B00004F01AF8FB68184607F11007BD4680BD04
:1026C00080B584B000AF4FF400104FF0010104F06A
:1026D0008BFC4FF4A840C4F2000003F05FFB4FF006
:1026E0000003BB804BF6FF73FB804FF033033B814D
:1026F0004FF480637B814FF48043BB8148F2A06339
:10270000C0F201033B604FF4A840C4F200004FF058
:10271000010103F07FFC3B464FF4A840C4F20000E7
:10272000194603F07FFB07F11007BD4680BD00BFCF
:1027300080B400AFBD4680BC704700BF80B58AB092
:1027400000AF78604FF400404FF0010104F04CFC02
:102750004FF47050C4F2000004F010FF7B683B623D
:102760004FF000037B834FF00003BB834FF0000367
:10277000BB844FF400733B834FF40073FB8307F17A
:1027800018034FF47050C4F20000194604F07EFFA5
:1027900040F24003C2F200031B68022B1BD14FF032
:1027A00000504FF0010104F01FFC4FF00003BB602C
:1027B0004FF00003FB604FF000037B6107F108035B
:1027C0004FF00000194601F035FB4FF000004FF0CC
:1027D000010101F083FB07F12807BD4680BD00BF62
:1027E00080B500AF4FF47050C4F200004FF000010C
:1027F00005F0C6F84FF47050C4F2000004F0BEFEBD
:102800004FF400404FF0000104F0EEFB80BD00BF2C
:1028100080B582B000AF4FF008004FF0010104F026
:102820005FFB4FF010033B604FF001033B714FF033
:1028300002037B714FF00003BB714FF00003FB718B
:102840003B464FF44060C4F20200194603F0BAF868
:102850004FF007004FF0010104F042FB4FF41073FA
:102860003B604FF002033B714FF002037B714FF06E
:102870000103BB714FF00003FB713B464FF48060D6
:10288000C4F20200194603F09DF84FF48060C4F2D0
:1028900002004FF006014FF0040203F029FA4FF452
:1028A0008060C4F202004FF009014FF0040203F00F
:1028B0001FFA4FF4A0533B604FF002033B714FF0FF
:1028C00002037B714FF00003BB714FF00003FB71FB
:1028D0003B464FF40060C4F20200194603F072F860
:1028E0004FF00000C4F202004FF004014FF0060266
:1028F00003F0FEF94FF40060C4F202004FF00A0149
:102900004FF0060203F0F4F940F24003C2F2000374
:102910001B68022B15D04FF010033B603B464FF075
:102920000000C4F20200194603F04CF84FF40060B6
:10293000C4F202004FF00C014FF0060203F0D8F988
:1029400016E04FF001004FF0010104F0C9FA4FF01A
:1029500010033B604FF003033B714FF00003FB712A
:102960003B464FF00000C4F20200194603F02AF87B
:102970004FF080033B604FF002033B714FF00203C6
:102980007B714FF00003BB714FF00003FB713B46BE
:102990004FF40060C4F20200194603F013F84FF43C
:1029A0000060C4F202004FF007014FF0060203F08E
:1029B0009FF907F10807BD4680BD00BF80B582B012
:1029C00000AF4FF4A0533B604FF000033B714FF05A
:1029D00000037B714FF00003BB714FF00003FB71EC
:1029E0003B464FF40060C4F20200194602F0EAFFD1
:1029F0004FF010033B603B464FF00000C4F2020072
:102A0000194602F0DFFF4FF00000C4F202004FF061
:102A100004014FF0000203F06BF94FF40060C4F2C0
:102A200002004FF00A014FF0000203F061F94FF489
:102A30000060C4F202004FF00C014FF0000203F0FE
:102A400057F94FF080033B603B464FF40060C4F2FF
:102A50000200194602F0B6FF4FF40060C4F2020013
:102A60004FF007014FF0060203F042F907F10807A3
:102A7000BD4680BD80B483B000AF786003E07B6862
:102A800003F1FF337B607B68002BF8D107F10C0763
:102A9000BD4680BC704700BF80B582B000AF40F239
:102AA0004003C2F200031B68012B40F0B88040F2E3
:102AB0004403C2F200031B6818464FF0010104F002
:102AC0000FFA40F24803C2F200031B6818464FF0A9
:102AD000000101F0F7FD40F24803C2F200031B6859
:102AE000184601F02FFC40F29403C2F200031A686A
:102AF00040F2F803C2F200031A6040F24C03C2F243
:102B000000031A6840F2F803C2F200035A6040F270
:102B1000F803C2F200034FF000029A6040F2F8039B
:102B2000C2F200034FF04002DA6040F2F803C2F252
:102B300000034FF6FE721A6140F2F803C2F200037E
:102B40004FF000025A6140F2F803C2F200034FF462
:102B500080629A6140F2F803C2F200034FF400620F
:102B6000DA6140F2F803C2F200034FF400521A6235
:102B700040F2F803C2F200034FF000025A6240F242
:102B8000F803C2F200034FF400329A6240F2F803F5
:102B9000C2F200034FF00002DA6240F2F803C2F220
:102BA00000034FF000021A6340F2F803C2F2000380
:102BB0004FF000025A6340F2F803C2F200034FF0F4
:102BC00000029A6340F24803C2F200031B681846F1
:102BD00040F2F801C2F2000101F0D6FC40F24803D5
:102BE000C2F200031B6818464FF010014FF00102BB
:102BF00001F0E6FE40F25003C2F200031B68DBB2B4
:102C00003B714FF000037B714FF00003BB714FF03D
:102C10000103FB7107F10403184600F051FA40F27A
:102C20004003C2F200031B68012B0AD14FF470501D
:102C3000C4F200004FF002014FF0010205F026F847
:102C40001CE000F035F94FF47050C4F200004FF072
:102C500071014FF0010205F03DF84FF033033B7175
:102C60004FF000037B714FF00003BB714FF0010385
:102C7000FB7107F10403184600F022FA07F1080778
:102C8000BD4680BD80B582B000AF40F25003C2F2B5
:102C900000031B68DBB23B714FF000037B714FF008
:102CA0000003BB714FF00003FB7107F104031846EA
:102CB00000F006FA40F24803C2F200031B6818460F
:102CC0004FF0000101F0FEFC40F24803C2F20003A5
:102CD0001B68184601F036FB07F10807BD4680BDAA
:102CE00080B582B000AF7860396040F24003C2F234
:102CF00000031B68012B24D140F2F803C2F2000349
:102D00007A689A603B684FEA530240F2F803C2F2D5
:102D100000031A6140F24803C2F200031B68184620
:102D200040F2F801C2F2000101F02EFC40F248032B
:102D3000C2F200031B6818464FF0010101F0C2FC0B
:102D400021E040F2F803C2F200037A689A6040F290
:102D5000F803C2F200033A681A6140F24803C2F273
:102D600000031B68184640F2F801C2F2000101F0AE
:102D70000BFC40F24803C2F200031B6818464FF0F8
:102D8000010101F09FFC4FF47053C4F200039B8BD0
:102D90009BB203F48063002B07D14FF47050C4F250
:102DA00000004FF0010104F0EBFD07F10807BD46FC
:102DB00080BD00BF80B582B000AF786039607B68AD
:102DC000002B14D14FF47050C4F200004FF00201F8
:102DD0004FF0000204F05AFF40F24803C2F2000331
:102DE0001B6818464FF0000101F06CFC25E04FF421
:102DF0007050C4F200004FF002014FF0010204F0E5
:102E000045FF40F24803C2F200031B6818464FF02A
:102E1000010101F057FC4FF47053C4F200039B8B87
:102E20009BB203F48063002B07D14FF47050C4F2BF
:102E300000004FF0010104F0A3FD07F10807BD46B3
:102E400080BD00BF80B500AF40F24803C2F200036E
:102E50001B6818464FF0000101F034FC40F24803B3
:102E6000C2F200031A6840F25403C2F20003196868
:102E700040F25803C2F200031B68194340F25C039E
:102E8000C2F200031B68194340F26003C2F2000360
:102E90001B680B431046194601F060FD4FF470505B
:102EA000C4F200004FF0000104F06AFD80BD00BFD5
:102EB00080B586B000AF4FF00100C0F220004FF0A7
:102EC000010104F00DF84FF000504FF0010104F043
:102ED0008BF84FF010033B604FF003033B714FF052
:102EE0000003FB713B464FF00000C4F2020019469C
:102EF00002F068FD4FF00003BB604FF00003FB6081
:102F00004FF000037B6107F108034FF00000194602
:102F100000F090FF4FF000004FF0010100F0DEFFE5
:102F200007F11807BD4680BD80B500AF4FF4804063
:102F30004FF0010104F060F94FF480404FF00001C0
:102F400004F05AF980BD00BF80B483B000AF0346DF
:102F5000FB714FF46053C4F20103FA791A6007F170
:102F60000C07BD4680BC704790B484B000AF0246E9
:102F70000B46FA71BB714FF00003FB60BB7903F0A5
:102F800003034FEA83034FF00F0202FA03F3FB60DF
:102F90004FF46053C4F20103BA794FEA9202D2B2FD
:102FA00010464FF46052C4F20102B9794FEA910120
:102FB000C9B201F1020152F821201146FA686FEA04
:102FC0000202114000F1020243F822104FF4605354
:102FD000C4F20103BA794FEA9202D2B210464FF41A
:102FE0006052C4F20102B9794FEA9101C9B201F10C
:102FF000020152F821201146FC79BA7902F003024D
:103000004FEA820204FA02F2114300F1020243F88D
:10301000221007F11007BD4690BC704780B483B002
:1030200000AF78604FF0DC03C4F227237A681A609F
:1030300007F10C07BD4680BC704700BF80B483B069
:1030400000AF0346FB714FF48063C4F22723FA7983
:103050001A6007F10C07BD4680BC704780B483B08E
:1030600000AF4FF00003FB714FF46053C4F2010353
:103070001B6A03F48073002B03D04FF00103FB7134
:1030800002E04FF00003FB71FB79184607F10C07D3
:10309000BD4680BC704700BF80B483B000AF78608D
:1030A0004FF46D43CEF200037A6842F0BE6242F400
:1030B0002022DA6007F10C07BD4680BC704700BFD4
:1030C00080B485B000AF78604FF00003FB734FF021
:1030D0000003BB734FF00F037B737B68DB78002B1F
:1030E00045D04FF46D43CEF20003DB686FEA030373
:1030F00003F4E0634FEA1323FB73FB7BC3F1040388
:10310000BB737A7BFB7B42FA03F37B737B685B7850
:103110001A46BB7B02FA03F3FB737B689A787B7BCE
:103120001340DAB2FB7B1343FB73FB7B4FEA0313C1
:10313000FB734FF46143CEF200037A6812789B1858
:10314000FA7B83F800234FF46143CEF200037A68E0
:1031500012784FEA5212D2B27968097801F01F0151
:103160004FF0010000FA01F143F8221014E04FF48F
:103170006143CEF200037A6812784FEA5212D2B25B
:103180007968097801F01F014FF0010000FA01F1A0
:1031900002F1200243F8221007F11407BD4680BC5B
:1031A000704700BF80B483B000AF786039604FF4DF
:1031B0006D43CEF200033A6822F0604222F07F02B3
:1031C00079680A439A6007F10C07BD4680BC7047D6
:1031D00080B483B000AF02460B46FA71BB71BB7975
:1031E000002B0DD04FF46D43CEF200034FF46D422F
:1031F000CEF2000212691146FA790A431A610EE012
:103200004FF46D43CEF200034FF46D42CEF2000254
:1032100012691146FA796FEA02020A401A6107F14F
:103220000C07BD4680BC704780B483B000AF7860A7
:103230007B68042B0CD14EF21003CEF200034EF249
:103240001002CEF20002126842F004021A600BE093
:103250004EF21003CEF200034EF21002CEF2000244
:10326000126822F004021A6007F10C07BD4680BC08
:10327000704700BF80B500AF4FF480704FF0010180
:1032800003F0BAFF4FF480704FF0000103F0B4FF79
:1032900080BD00BF80B485B000AF786039604FF06A
:1032A0000003FB604FF00003FB727B685B68FB6010
:1032B000FB6823F0407323F48073FB603B681B7949
:1032C0004FEA03223B681B681343FA681343FB6011
:1032D0007B68FA685A607B689B68FB60FA684FF20B
:1032E000FD73CCF2FF031340FB603B681A693B6837
:1032F000DB681A433B689B681A433B685B794FEA7B
:1033000043031343FA681343FB607B68FA689A60CF
:103310007B68DB6AFB60FB6823F47003FB603B683F
:103320001B7D03F1FF33DAB2FB7A1343FB72FB7AA6
:103330004FEA0353FA681343FB607B68FA68DA626A
:1033400007F11407BD4680BC704700BF80B483B04E
:1033500000AF78607B684FF000021A607B684FF026
:1033600000021A717B684FF000025A717B684FF0BF
:1033700000029A607B684FF00002DA607B684FF0D1
:1033800000021A617B684FF001021A7507F10C0701
:10339000BD4680BC704700BF80B485B000AF786088
:1033A0004FF00003FB604FF40C53C4F201035B6861
:1033B000FB60FA6843F2E003CFF6FC731340FB6056
:1033C0007B681A687B685B681A437B689B681A4352
:1033D0007B68DB681343FA681343FB604FF40C53BC
:1033E000C4F20103FA685A6007F11407BD4680BCB5
:1033F000704700BF80B483B000AF78607B684FF047
:1034000000021A607B684FF000025A607B684FF040
:1034100000029A607B684FF00002DA6007F10C0747
:10342000BD4680BC704700BF80B483B000AF7860F9
:103430000B46FB70FB78002B06D07B689B6843F043
:1034400001027B689A6005E07B689B6823F00102BB
:103450007B689A6007F10C07BD4680BC704700BFCF
:1034600080B485B000AF786039604FF00003FB6036
:103470007B685B68FB60FB6823F4400323F4007304
:10348000FB60FA683B681343FB607B68FA685A602C
:1034900007F11407BD4680BC704700BF80B483B0FD
:1034A00000AF786013460A467A803B807A887B6852
:1034B0005A623A887B689A6207F10C07BD4680BC65
:1034C000704700BF80B485B000AF78600B46FB70DA
:1034D0004FF00003FB607B685B68FB60FB6823F0D8
:1034E0001F03FB60FB78FA681343FB607B68FA6894
:1034F0005A6007F11407BD4680BC704780B483B0A2
:1035000000AF0346FB71FB79002B0CD04FF40C533A
:10351000C4F201034FF40C52C4F20102526842F4A7
:1035200000025A600BE04FF40C53C4F201034FF455
:103530000C52C4F20102526822F400025A6007F1F0
:103540000C07BD4680BC704780B483B000AF034613
:10355000FB71FB79002B0CD04FF40C53C4F2010328
:103560004FF40C52C4F20102526842F480025A60D5
:103570000BE04FF40C53C4F201034FF40C52C4F2AD
:103580000102526822F480025A6007F10C07BD461E
:1035900080BC704780B485B000AF7860F970BA70B5
:1035A0007B704FF00003FB604FF00003BB60FB78C3
:1035B000092B27D97B68DB68FB60FA7813464FEA52
:1035C00043039B18A3F11E034FF0070202FA03F313
:1035D000BB60BB686FEA0303FA681340FB6079784D
:1035E000FA7813464FEA43039B18A3F11E0301FA2E
:1035F00003F3BB60FA68BB681343FB607B68FA683F
:10360000DA6022E07B681B69FB60FA7813464FEAB8
:1036100043039B184FF0070202FA03F3BB60BB6839
:103620006FEA0303FA681340FB607978FA7813466F
:103630004FEA43039B1801FA03F3BB60FA68BB68C7
:103640001343FB607B68FA681A61BB78062B27D8A6
:103650007B685B6BFB60BB7803F1FF3213464FEA7C
:1036600083039B184FF01F0202FA03F3BB60BB6891
:103670006FEA0303FA681340FB60F978BB7803F143
:10368000FF3213464FEA83039B1801FA03F3BB6032
:10369000FA68BB681343FB607B68FA685A6351E0C1
:1036A000BB780C2B27D87B681B6BFB60BA78134662
:1036B0004FEA83039B18A3F123034FF01F0202FA82
:1036C00003F3BB60BB686FEA0303FA681340FB6057
:1036D000F978BA7813464FEA83039B18A3F12303C2
:1036E00001FA03F3BB60FA68BB681343FB607B68B5
:1036F000FA681A6326E07B68DB6AFB60BA781346D7
:103700004FEA83039B18A3F141034FF01F0202FA13
:1037100003F3BB60BB686FEA0303FA681340FB6006
:10372000F978BA7813464FEA83039B18A3F1410353
:1037300001FA03F3BB60FA68BB681343FB607B6864
:10374000FA68DA6207F11407BD4680BC704700BF13
:1037500080B483B000AF78607B689B6843F08042A0
:103760007B689A6007F10C07BD4680BC704700BFBC
:1037700080B485B000AF78604FF00003FB737B68C6
:103780009B6803F48003002B03D04FF00103FB730D
:1037900002E04FF00003FB73FB7B184607F11407B0
:1037A000BD4680BC704700BF80B483B000AF786076
:1037B0000B46FB70FB78002B06D07B689B6843F4BC
:1037C00080627B689A6005E07B689B6823F4806276
:1037D0007B689A6007F10C07BD4680BC704700BF4C
:1037E00080B483B000AF78600B46FB70FB78002B91
:1037F00006D07B689B6843F002027B689A6005E014
:103800007B689B6823F002027B689A6007F10C07D3
:10381000BD4680BC704700BF80B485B000AF786003
:103820000B46FB704FF00003FB604FF00003BB60E2
:103830007B685B68FB60FB6823F46043FB60FB789C
:1038400003F1FF33BB60BB684FEA4333FA681343AD
:10385000FB607B68FA685A6007F11407BD4680BCBC
:10386000704700BF80B483B000AF78600B46FB7038
:10387000FB78002B06D07B685B6843F400627B68B2
:103880005A6005E07B685B6823F400627B685A60DD
:1038900007F10C07BD4680BC704700BF80B483B001
:1038A00000AF78607B68DB6C9BB2184607F10C07B1
:1038B000BD4680BC704700BF80B400AF42F2083301
:1038C000C4F201031B681846BD4680BC704700BFA8
:1038D00080B483B000AF78600B46FB70FB78002BA0
:1038E00006D07B689B6843F480727B689A6005E031
:1038F0007B689B6823F480727B689A6007F10C07F1
:10390000BD4680BC704700BF80B483B000AF786014
:103910000B46FB70FB78002B06D07B689B6843F45A
:1039200000727B689A6005E07B689B6823F40072F4
:103930007B689A6007F10C07BD4680BC704700BFEA
:1039400080B483B000AF0346FB71FB79002B0CD031
:103950004FF40C53C4F201034FF40C52C4F20102B1
:10396000526842F400525A600BE04FF40C53C4F218
:1039700001034FF40C52C4F20102526822F40052C7
:103980005A6007F10C07BD4680BC704780B487B011
:1039900000AF7860F970BA707B704FF000037B6104
:1039A0004FF000033B614FF00003FB60FB78092BF5
:1039B00027D97B68DB687B61FA7813464FEA4303BB
:1039C0009B18A3F11E034FF0070202FA03F33B61B9
:1039D0003B696FEA03037A6913407B617978FA786F
:1039E00013464FEA43039B18A3F11E0301FA03F3A6
:1039F0003B617A693B6913437B617B687A69DA6072
:103A000022E07B681B697B61FA7813464FEA430327
:103A10009B184FF0070202FA03F33B613B696FEA20
:103A200003037A6913407B617978FA7813464FEA89
:103A300043039B1801FA03F33B617A693B69134323
:103A40007B617B687A691A617B689B6B7B617B69B0
:103A500003F440134FEA1353FB60FB68DBB26FEAD9
:103A60000303DAB2BB78D318DBB203F10303DBB292
:103A70001A4613464FEA83039B184FF01F0202FABF
:103A800003F33B613B696FEA03037A6913407B618F
:103A9000F978FB68DBB26FEA0303DAB2BB78D318BC
:103AA000DBB203F10303DBB21A4613464FEA83038A
:103AB0009B1801FA03F33B617A693B6913437B610D
:103AC0007B687A699A6307F11C07BD4680BC704722
:103AD00080B485B000AF78600B46FB704FF00003F8
:103AE000FB604FF00003BB607B689B6BFB60FB6877
:103AF00023F44013FB60FB7803F1FF33BB60BB682A
:103B00004FEA0353FA681343FB607B68FA689A63D1
:103B100007F11407BD4680BC704700BF80B485B074
:103B200000AF786013460A46FA703B804FF00003FE
:103B3000FB607B68FB60FA78FB68D318FB60FB686E
:103B40003A881A6007F11407BD4680BC704700BF71
:103B500080B485B000AF786039604FF00003FB603F
:103B60007B689B68FB60FB6823F47023FB60FA684A
:103B70003B681343FB607B68FA689A6007F114079F
:103B8000BD4680BC704700BF80B485B000AF786090
:103B900039604FF00003FB607B689B68FB60FB684B
:103BA00023F44013FB60FA683B681343FB607B68B7
:103BB000FA689A6007F11407BD4680BC704700BFE1
:103BC00080B483B000AF78607B689B6843F4800268
:103BD0007B689A6007F10C07BD4680BC704700BF48
:103BE00080B485B000AF78604FF00003FB737B6852
:103BF0009B6803F48003002B03D04FF00103FB7399
:103C000002E04FF00003FB73FB7B184607F114073B
:103C1000BD4680BC704700BF80B483B000AF786001
:103C20000B46FB70FB78002B06D07B685B6843F487
:103C300080627B685A6005E07B685B6823F4806281
:103C40007B685A6007F10C07BD4680BC704700BF17
:103C500080B483B000AF78600B46FB70FB78002B1C
:103C600006D07B685B6843F480527B685A6005E04D
:103C70007B685B6823F480527B685A6007F10C070D
:103C8000BD4680BC704700BF80B485B000AF78608F
:103C90000B46FB704FF00003FB607B68FB60FA781B
:103CA000FB68D31803F12803FB60FB681B689BB219
:103CB000184607F11407BD4680BC704780B485B034
:103CC00000AF786013460A467A807B704FF000039D
:103CD000FB607B88DBB2FB60FB684FF0010202FAFD
:103CE00003F3FB607B78002B07D07B685B681A4688
:103CF000FB681A437B685A6008E07B685B681A4679
:103D0000FB686FEA03031A407B685A6007F11407E7
:103D1000BD4680BC704700BF80B485B000AF7860FE
:103D20000B46FB704FF00003FB737B681B681A4661
:103D3000FB781340002B03D04FF00103FB7302E02C
:103D40004FF00003FB73FB7B184607F11407BD46D9
:103D500080BC704780B483B000AF78600B46FB70C6
:103D6000FB786FEA03027B681A6007F10C07BD4617
:103D700080BC704780B487B000AF78600B467B8012
:103D80004FF00003FB754FF000033B614FF0000361
:103D9000FB607B884FEA13239BB23B617B685B68C7
:103DA0001A467B88DBB24FF0010101FA03F313409E
:103DB000FB607B681B681A463B691340002B06D0EA
:103DC000FB68002B03D04FF00103FB7502E04FF0BE
:103DD0000003FB75FB7D184607F11C07BD4680BC40
:103DE000704700BF80B485B000AF78600B467B8021
:103DF0004FF00003FB737B884FEA13239BB2FB73E6
:103E0000FB7B6FEA03027B681A6007F11407BD466B
:103E100080BC704780B500AF4FF000504FF00101FB
:103E200003F0BEF94FF000504FF0000103F0B8F975
:103E300080BD00BF80B485B000AF786039604FF0BE
:103E40000003FB604FF00003BB604FF4E843C4F293
:103E500000031B68FB607B6840F6FE7202FA03F306
:103E60006FEA0303FA681340FB603B681A683B681B
:103E70005B681A433B689B681A433B68DB681343E3
:103E8000BB607B68BA6802FA03F3FA681343FB600D
:103E90004FF4E843C4F20003FA681A6007F114070C
:103EA000BD4680BC704700BF80B483B000AF78606F
:103EB0007B684FF000021A607B684FF000025A6086
:103EC0007B684FF000029A607B684FF00002DA6076
:103ED00007F10C07BD4680BC704700BF80B483B0BB
:103EE00000AF78600B46FB70FB78002B11D04FF4CD
:103EF000E843C4F200034FF4E842C4F2000212683F
:103F000011467A684FF0010000FA02F20A431A6083
:103F100012E04FF4E843C4F200034FF4E842C4F265
:103F20000002126811467A684FF0010000FA02F2AE
:103F30006FEA02020A401A6007F10C07BD4680BC16
:103F4000704700BF80B483B000AF78600B46FB7051
:103F5000FB78002B13D04FF4E843C4F200034FF476
:103F6000E842C4F20002526811467A684FEA12121F
:103F70004FF0010000FA02F20A435A6014E04FF4D5
:103F8000E843C4F200034FF4E842C4F2000252686E
:103F900011467A684FEA12124FF0010000FA02F25D
:103FA0006FEA02020A405A6007F10C07BD4680BC66
:103FB000704700BF80B483B000AF0346FB71FB794C
:103FC000002B0CD04FF4E843C4F200034FF4E84256
:103FD000C4F20002526842F003025A600BE04FF450
:103FE000E843C4F200034FF4E842C4F2000252680E
:103FF00022F003025A6007F10C07BD4680BC7047EF
:1040000080B485B000AFF860B9601346FB71FB79EE
:10401000002B10D04FF4E843C4F200034FF4E84201
:10402000C4F2000212681146FA68B86800FA02F297
:104030000A431A6011E04FF4E843C4F200034FF45E
:10404000E842C4F2000212681146FA68B86800FA41
:1040500002F26FEA02020A401A6007F11407BD4635
:1040600080BC704780B485B000AF78600B467B8021
:104070004FF00003FB604FF4E843C4F20003FB6021
:10408000FA687B68D31803F10803FB60FB687A8841
:104090001A6007F11407BD4680BC704780B485B034
:1040A00000AF78600B467B804FF00003FB604FF45D
:1040B000E843C4F20003FB60FA687B68D31803F19D
:1040C0001403FB60FB687A881A6007F11407BD4689
:1040D00080BC704780B485B000AF786013460A4654
:1040E0007A803B804FF00003FB604FF00003BB6021
:1040F0007B68082B06D17B884FEA03223B88134359
:10410000FB6005E07B884FEA03423B881343FB607A
:104110004FF4E843C4F20003BB607A68BB68D3186D
:1041200003F12003BB60BB68FA681A6007F114074B
:10413000BD4680BC704700BF80B485B000AF7860DA
:104140004FF00003FB604FF4E843C4F20003FB6050
:104150007B684FEA9302FB68D31803F12C03FB60E2
:10416000FB681B689BB2184607F11407BD4680BC6C
:10417000704700BF80B483B000AF78600B46FB701F
:10418000FB78002B11D04FF4E843C4F200034FF446
:10419000E842C4F20002126811467A684FF4805077
:1041A00000FA02F20A431A6012E04FF4E843C4F244
:1041B00000034FF4E842C4F20002126811467A6824
:1041C0004FF4805000FA02F26FEA02020A401A60CD
:1041D00007F10C07BD4680BC704700BF80B485B0B6
:1041E00000AFF860B9601346FB71FB79002B10D06B
:1041F0004FF4E843C4F200034FF4E842C4F2000273
:1042000012681146FA68B86800FA02F20A431A60A6
:1042100011E04FF4E843C4F200034FF4E842C4F263
:10422000000212681146FA68B86800FA02F26FEAF2
:1042300002020A401A6007F11407BD4680BC7047AD
:1042400080B485B000AF786039604FF00003FB7335
:104250004FF4E843C4F200035B6B1A467B6839688D
:1042600001FA03F31340002B03D04FF00103FB735B
:1042700002E04FF00003FB73FB7B184607F11407C5
:10428000BD4680BC704700BF80B483B000AF78608B
:1042900039604FF4E843C4F200037A68396801FAE0
:1042A00002F25A6307F10C07BD4680BC704700BF9D
:1042B00080B485B000AF786039604FF00003FB73C5
:1042C0004FF00003BB604FF4E843C4F200031B68E7
:1042D0001A467B68396801FA03F31340BB604FF458
:1042E000E843C4F200035B6B1A467B68396801FA45
:1042F00003F31340002B06D0BB68002B03D04FF014
:104300000103FB7302E04FF00003FB73FB7B1846D5
:1043100007F11407BD4680BC704700BF80B483B06E
:1043200000AF786039604FF4E843C4F200037A6864
:10433000396801FA02F25A6307F10C07BD4680BCE6
:10434000704700BF80B483B000AF78607B681B68A3
:1043500023F001027B681A607B684FF000021A604C
:104360007B684FF000025A607B684FF000029A6051
:104370007B684FF00002DA607B684FF000021A6140
:104380007B684FF021025A617A6846F21003C4F24A
:1043900002039A4207D14FF4C043C4F202034FF024
:1043A0003D029A60EBE07A6846F22803C4F2020309
:1043B0009A4207D14FF4C043C4F202034FF474622F
:1043C0009A60DCE07A6846F24003C4F202039A4243
:1043D00007D14FF4C043C4F202034FF474129A6041
:1043E000CDE07A6846F25803C4F202039A4207D13C
:1043F0004FF4C043C4F202034FF074629A60BEE00F
:104400007A6846F27003C4F202039A4209D14FF46B
:10441000C043C4F202034FF03D02C2F20002DA6070
:10442000ADE07A6846F28803C4F202039A4209D1E9
:104430004FF4C043C4F202034FF47462C2F20002AC
:10444000DA609CE07A6846F2A003C4F202039A4262
:1044500009D14FF4C043C4F202034FF00002C2F28C
:104460003D02DA608BE07A6846F2B803C4F20203D8
:104470009A4207D14FF4C043C4F202034FF03D52B9
:10448000DA607CE07A6846F21043C4F202039A4292
:1044900007D14FF4C843C4F202034FF03D029A60C3
:1044A0006DE07A6846F22843C4F202039A4207D1CB
:1044B0004FF4C843C4F202034FF474629A605EE0A2
:1044C0007A6846F24043C4F202039A4207D14FF49D
:1044D000C843C4F202034FF474129A604FE07A6842
:1044E00046F25843C4F202039A4207D14FF4C8433C
:1044F000C4F202034FF074629A6040E07A6846F2B8
:104500007043C4F202039A4209D14FF4C843C4F283
:1045100002034FF03D02C2F20002DA602FE07A6837
:1045200046F28843C4F202039A4209D14FF4C843C9
:10453000C4F202034FF47462C2F20002DA601EE0B9
:104540007A6846F2A043C4F202039A4209D14FF4BA
:10455000C843C4F202034FF00002C2F23D02DA6027
:104560000DE07A6846F2B843C4F202039A4206D1DB
:104570004FF4C843C4F202034FF03D52DA6007F132
:104580000C07BD4680BC704780B485B000AF786032
:1045900039604FF00003FB607B681B68FB60FA68C2
:1045A00048F23F03CFF21C031340FB603B681A68DC
:1045B0003B68DB681A433B685B691A433B689B694D
:1045C0001A433B68DB691A433B681B6A1A433B6822
:1045D0005B6A1A433B689B6A1A433B685B6B1A43EE
:1045E0003B689B6B1343FA681343FB607B68FA6874
:1045F0001A607B685B69FB60FB6823F00703FB6064
:104600003B68DA6A3B681B6B1343FA681343FB6031
:104610007B68FA685A613B681A697B685A603B6834
:104620005A687B689A603B689A687B68DA6007F131
:104630001407BD4680BC704780B483B000AF78607B
:104640007B684FF000021A607B684FF000025A60EE
:104650007B684FF000029A607B684FF00002DA60DE
:104660007B684FF000021A617B684FF000025A61CC
:104670007B684FF000029A617B684FF00002DA61BC
:104680007B684FF000021A627B684FF000025A62AA
:104690007B684FF000029A627B684FF00002DA629A
:1046A0007B684FF000021A637B684FF000025A6388
:1046B0007B684FF000029A6307F10C07BD4680BC8F
:1046C000704700BF80B483B000AF78600B46FB70CA
:1046D000FB78002B06D07B681B6843F001027B68E7
:1046E0001A6005E07B681B6823F001027B681A6092
:1046F00007F10C07BD4680BC704700BF80B483B093
:1047000000AF786039603B68002B06D07B681B687F
:1047100043F400427B681A6005E07B681B6823F461
:1047200000427B681A6007F10C07BD4680BC7047E9
:1047300080B483B000AF786039603B68002B06D04E
:104740007B681B6843F020027B681A6005E07B6889
:104750001B6823F020027B681A6007F10C07BD4636
:1047600080BC704780B483B000AF78600B467B801C
:104770007A887B685A6007F10C07BD4680BC704799
:1047800080B483B000AF78607B685B689BB21846EA
:1047900007F10C07BD4680BC704700BF80B485B0F0
:1047A00000AFF860B9607A607B68002B06D0FB68C8
:1047B0001B6843F40022FB681A6005E0FB681B6875
:1047C00023F40022FB681A60FB68BA681A6107F1DB
:1047D0001407BD4680BC704780B483B000AF7860DA
:1047E0000B46FB70FB78002B06D07B681B6843F4FC
:1047F00080227B681A6005E07B681B6823F48022B6
:104800007B681A6007F10C07BD4680BC704700BF8B
:1048100080B485B000AFF860B9607A607B68002B27
:1048200003D0FB68BA681A6102E0FB68BA68DA6014
:1048300007F11407BD4680BC704700BF80B485B047
:1048400000AF78604FF00003FB607B681B6803F4E7
:104850000023002B03D04FF00103FB6002E04FF078
:104860000003FB60FB68184607F11407BD4680BCD7
:10487000704700BF80B485B000AF78604FF0000390
:10488000FB737B681B6803F00103DBB2002B03D0D2
:104890004FF00103FB7302E04FF00003FB73FB7B5F
:1048A000184607F11407BD4680BC704780B485B038
:1048B00000AF78604FF00003FB607B685B6903F03A
:1048C0003803FB60FB68184607F11407BD4680BC3F
:1048D000704700BF80B487B000AF786039604FF098
:1048E0000003FB754FF00003FB607A6846F20F434C
:1048F000C4F202039A4205D84FF4C043C4F2020343
:104900003B6104E04FF4C843C4F202033B613B68DF
:1049100003F00053002B03D03B695B68FB6002E0AF
:104920003B691B68FB60FA6840F67D73C0F67D73D7
:104930001340FB60FA683B681340002B03D04FF034
:104940000103FB7502E04FF00003FB75FB7D184689
:1049500007F11C07BD4680BC704700BF80B485B01E
:1049600000AF786039607A6846F20F43C4F2020300
:104970009A4205D84FF4C043C4F20203FB6004E03E
:104980004FF4C843C4F20203FB603B6803F00053DA
:10499000002B08D03A6840F67D73C0F67D73134053
:1049A000FA68D36007E03A6840F67D73C0F67D731D
:1049B0001340FA68936007F11407BD4680BC704746
:1049C00080B485B000AFF860B9601346FB71BB6876
:1049D00003F08003002B0FD0FB79002B06D0FB687F
:1049E0005B6943F08002FB685A6105E0FB685B6924
:1049F00023F08002FB685A61BB68802B17D0FB79DB
:104A0000002B09D0FB681B681A46BB6803F01E0325
:104A10001A43FB681A600AE0FB681B681A46BB6809
:104A200003F01E036FEA03031A40FB681A6007F1E4
:104A30001407BD4680BC704780B487B000AF786073
:104A400039604FF00003FB754FF00003FB604FF03F
:104A50000003BB607A6846F20F43C4F202039A4235
:104A600005D84FF4C043C4F202033B6104E04FF4A5
:104A7000C843C4F202033B613A6840F63C73C0F697
:104A80003C731340002B0CD03B684FEAD32303F058
:104A90001E03FB607B681B681A46FB681340BB6003
:104AA00004E07B685B6903F08003BB603B6803F054
:104AB0000053002B03D03B695B68FB6002E03B695D
:104AC0001B68FB60FA6840F67D73C0F67D73134087
:104AD000FB60FA683B681340002B06D0BB68002BD4
:104AE00003D04FF00103FB7502E04FF00003FB75AC
:104AF000FB7D184607F11C07BD4680BC704700BF10
:104B000080B485B000AF786039607A6846F20F43B0
:104B1000C4F202039A4205D84FF4C043C4F2020320
:104B2000FB6004E04FF4C843C4F20203FB603B683F
:104B300003F00053002B08D03A6840F67D73C0F6AE
:104B40007D731340FA68D36007E03A6840F67D73DE
:104B5000C0F67D731340FA68936007F11407BD46F1
:104B600080BC704780B400AF4FF47053C4F20103AF
:104B70004FF000021A604FF47053C4F201034FF07B
:104B800000025A604FF47053C4F201034FF0000268
:104B90009A604FF47053C4F201034FF00002DA60E0
:104BA0004FF47053C4F201034FF6FF72C0F27F025C
:104BB0005A61BD4680BC704780B485B000AF786054
:104BC0004FF00003FB604FF47053C4F20103FB602D
:104BD0007B689B79002B7ED04FF47053C4F20103A5
:104BE0004FF47052C4F20102126811467A681268DA
:104BF0006FEA02020A401A604FF47053C4F20103D4
:104C00004FF47052C4F20102526811467A68126879
:104C10006FEA02020A405A607B681B79FA68D3186F
:104C2000FB60FB68FA6811687A6812680A431A60C8
:104C30004FF47053C4F201034FF47052C4F20102F6
:104C4000926811467A6812686FEA02020A409A6016
:104C50004FF47053C4F201034FF47052C4F20102D6
:104C6000D26811467A6812686FEA02020A40DA6076
:104C70007B685B79102B1CD14FF47053C4F2010395
:104C80004FF47052C4F20102926811467A681268B9
:104C90000A439A604FF47053C4F201034FF4705208
:104CA000C4F20102D26811467A6812680A43DA60D7
:104CB0001FE04FF47053C4F20103FB607B685B7923
:104CC000FA68D318FB60FB68FA6811687A681268A2
:104CD0000A431A600DE07B681B79FA68D318FB6001
:104CE000FB68FA6811687A6812686FEA02020A4083
:104CF0001A6007F11407BD4680BC704780B483B0CA
:104D000000AF78607B684FF000021A607B684FF05C
:104D100000021A717B684FF00C025A717B684FF0E9
:104D200000029A7107F10C07BD4680BC704700BFB6
:104D300080B483B000AF78604FF47053C4F20103C5
:104D40004FF47052C4F20102126911467A680A43A4
:104D50001A6107F10C07BD4680BC704780B485B06E
:104D600000AF78604FF00003FB734FF47053C4F250
:104D700001035B691A467B681340002B03D04FF098
:104D80000103FB7302E04FF00003FB73FB7B18464B
:104D900007F11407BD4680BC704700BF80B483B0E4
:104DA00000AF78604FF47053C4F201037A685A611F
:104DB00007F10C07BD4680BC704700BF80B485B0CA
:104DC00000AF78604FF00003FB734FF00003BB604F
:104DD0004FF47053C4F201031B681A467B681340FA
:104DE000BB604FF47053C4F201035B691A467B68E1
:104DF0001340002B06D0BB68002B03D04FF00103FB
:104E0000FB7302E04FF00003FB73FB7B184607F1D6
:104E10001407BD4680BC704780B483B000AF786093
:104E20004FF47053C4F201037A685A6107F10C071A
:104E3000BD4680BC704700BF80B483B000AF7860CF
:104E40004FF47053C4F202037A68D2B21A7007F1B9
:104E50000C07BD4680BC704780B483B000AF0346EA
:104E6000FB71FB79002B0CD04FF47053C4F202039A
:104E70004FF47052C4F20202126842F480721A6057
:104E80000BE04FF47053C4F202034FF47052C4F2BB
:104E90000202126822F480721A6007F10C07BD4604
:104EA00080BC704780B483B000AF0346FB71FB79D0
:104EB000002B0CD04FF47053C4F202034FF4705225
:104EC000C4F20202126842F400721A600BE04FF45E
:104ED0007053C4F202034FF47052C4F2020212681B
:104EE00022F400721A6007F10C07BD4680BC7047BF
:104EF00080B483B000AF0346FB71FB79002B0CD06C
:104F00004FF47053C4F202034FF47052C4F2020221
:104F1000126842F480621A600BE04FF47053C4F2DE
:104F200002034FF47052C4F20202126822F480624B
:104F30001A6007F10C07BD4680BC704780B400AF13
:104F40004FF47053C4F202034FF47052C4F20202E1
:104F5000126842F400621A60BD4680BC704700BF10
:104F600080B400AF4FF47053C4F202034FF4705298
:104F7000C4F20202126842F480521A60BD4680BC3C
:104F8000704700BF80B400AF4FF47053C4F2020307
:104F90001B69002B11DA4FF47053C4F2020340F284
:104FA0002312C4F267525A604FF47053C4F20203E2
:104FB00048F6AB12CCF6EF525A60BD4680BC704743
:104FC00080B400AF4FF47053C4F202034FF4705238
:104FD000C4F20202126942F000421A61BD4680BC6E
:104FE000704700BF80B584B000AF78600B46FB709F
:104FF0004FF00003FB604FF00803FB72FB78002BBF
:1050000003D14FF00003FB6010E0FB78012B03D1CC
:105010004FF48073FB6009E0FB78022B03D14FF45F
:105020000073FB6002E04FF44073FB6000F0F4FBA0
:105030000346FB72FB7A082B5BD14FF47053C4F22A
:1050400002034FF47052C4F20202126922F4407259
:105050001A614FF47053C4F202034FF47052C4F259
:10506000020212691146FA680A431A614FF470533A
:10507000C4F202034FF47052C4F20202126922F029
:10508000F8021A614FF47053C4F202034FF47052E5
:10509000C4F20202126911467A680A4342F002021F
:1050A0001A614FF47053C4F202034FF47052C4F209
:1050B0000202126942F480321A6100F0ADFB03462D
:1050C000FB724FF47053C4F202034FF47052C4F2F7
:1050D0000202126922F002021A614FF47053C4F204
:1050E00002034FF47052C4F20202126922F0F80275
:1050F0001A61FB7A184607F11007BD4680BD00BF54
:1051000080B584B000AF0346FB714FF00003FB6035
:105110004FF00803FB7200F07FFB0346FB72FB7944
:10512000002B03D14FF00003FB6010E0FB79012B53
:1051300003D14FF48073FB6009E0FB79022B03D1AC
:105140004FF40073FB6002E04FF44073FB60FB7AA6
:10515000082B40D14FF47053C4F202034FF4705245
:10516000C4F20202126922F440721A614FF47053C1
:10517000C4F202034FF47052C4F2020212691146E3
:10518000FA680A431A614FF47053C4F202034FF4F1
:105190007052C4F20202126942F004021A614FF422
:1051A0007053C4F202034FF47052C4F20202126947
:1051B00042F480321A6100F02FFB0346FB724FF479
:1051C0007053C4F202034FF47052C4F20202126927
:1051D00022F004021A61FB7A184607F11007BD4657
:1051E00080BD00BF80B586B000AFF860C7E900237E
:1051F0004FF00803FB7500F00FFB0346FB75FB7DCA
:10520000082B38D14FF47053C4F202034FF470529C
:10521000C4F20202126922F440721A614FF4705310
:10522000C4F202034FF47052C4F20202126942F453
:1052300040721A614FF47053C4F202034FF470527B
:10524000C4F20202126942F001021A61F968D7E958
:105250000023C1E9002300F0DFFA0346FB754FF499
:105260007053C4F202034FF47052C4F20202126986
:1052700022F001021A61FB7D184607F11807BD46AE
:1052800080BD00BF80B584B000AF786039604FF05A
:105290000803FB7300F0C0FA0346FB73FB7B082B8B
:1052A00036D14FF47053C4F202034FF47052C4F27B
:1052B0000202126922F440721A614FF47053C4F270
:1052C00002034FF47052C4F20202126942F40072F7
:1052D0001A614FF47053C4F202034FF47052C4F2D7
:1052E0000202126942F001021A617B683A681A6090
:1052F00000F092FA0346FB734FF47053C4F20203BA
:105300004FF47052C4F20202126922F001021A61D3
:10531000FB7B184607F11007BD4680BD80B584B001
:1053200000AF78600B467B804FF00803FB7300F002
:1053300073FA0346FB73FB7B082B36D14FF4705393
:10534000C4F202034FF47052C4F20202126922F452
:1053500040721A614FF47053C4F202034FF470525A
:10536000C4F20202126942F480721A614FF470535F
:10537000C4F202034FF47052C4F20202126942F006
:1053800001021A617B687A881A8000F045FA0346A8
:10539000FB734FF47053C4F202034FF47052C4F223
:1053A0000202126922F001021A61FB7B184607F122
:1053B0001007BD4680BD00BF80B584B000AF7860E7
:1053C0000B46FB704FF00803FB7300F025FA034611
:1053D000FB73FB7B082B34D14FF47053C4F20203F0
:1053E0004FF47052C4F20202126922F440721A6140
:1053F0004FF47053C4F202034FF47052C4F202022D
:1054000012691A614FF47053C4F202034FF47052E0
:10541000C4F20202126942F001021A617B68FA7852
:105420001A7000F0F9F90346FB734FF47053C4F29D
:1054300002034FF47052C4F20202126922F0010218
:105440001A61FB7B184607F11007BD4680BD00BFFF
:1054500080B400AF4FF47053C4F202035B6903F0F1
:105460000103DBB2002B11D04FF47053C4F20203DE
:1054700042F63B22C0F619029A604FF47053C4F210
:10548000020346F67F62C4F65D429A60BD4680BC68
:10549000704700BF80B400AF4FF47053C4F20203F2
:1054A0004FF47052C4F20202526942F001025A6192
:1054B000BD4680BC704700BF80B584B000AF786047
:1054C0000B46FB704FF00803FB7300F0A5F9034691
:1054D000FB73FB7B082B24D1FB78002B12D043F607
:1054E0001643C4F2020343F61642C4F202021288C3
:1054F00091B27A6892B26FEA020292B20A4092B214
:105500001A800EE043F61643C4F2020343F6164235
:10551000C4F20202128891B27A6892B20A4392B23D
:105520001A8007F11007BD4680BD00BF80B584B06A
:1055300000AF0346FB714FF00803FB7300F06CF9FA
:105540000346FB73FB7B082B05D143F61543C4F2DE
:105550000203FA791A7007F11007BD4680BD00BF3B
:1055600080B584B000AF13460246FA710A46BA719C
:105570007B714FF0FF03FB734FF00803BB7300F028
:105580004BF90346BB73BB7B082B17D143F614437F
:10559000C4F202031B78DBB203F00F03FB7343F684
:1055A0001443C4F20203B979FA7B0A43D1B27A797F
:1055B0000A43D1B2FA790A43D2B21A7007F110073E
:1055C000BD4680BD80B483B000AF0346FB7143F697
:1055D0001443C4F2020343F61442C4F202021278E6
:1055E000D2B222F00C02D2B21A7043F61443C4F2C3
:1055F000020343F61442C4F202021278D1B2FA79DD
:105600000A43D2B21A7007F10C07BD4680BC70473E
:1056100080B582B000AF4FF00803FB7143F614432E
:10562000C4F2020343F61442C4F202021278D2B268
:1056300042F00202D2B21A7000F0EEF80346FB719B
:10564000FB79184607F10807BD4680BD80B400AF5E
:105650004FF47053C4F202035B694FEA5313DBB299
:105660001846BD4680BC704780B400AF43F6164371
:10567000C4F202031B889BB21846BD4680BC70472B
:1056800080B483B000AF4FF00003FB7143F61543C5
:10569000C4F202031B78DBB2AA2B03D04FF0010344
:1056A000FB7102E04FF00003FB71FB79184607F134
:1056B0000C07BD4680BC704780B400AF43F614436E
:1056C000C4F202031B78DBB203F00C03DBB2184612
:1056D000BD4680BC704700BF80B483B000AF786027
:1056E0000B46FB70FB78002B0DD04FF47053C4F2C7
:1056F00002034FF47052C4F20202126911467A6832
:105700000A431A610EE04FF47053C4F202034FF4DF
:105710007052C4F20202126911467A686FEA0202FC
:105720000A401A6107F10C07BD4680BC704700BFF4
:1057300080B485B000AF78604FF00003FB734FF486
:105740007053C4F20203DB681A467B681340002BD7
:1057500003D04FF00103FB7302E04FF00003FB7333
:10576000FB7B184607F11407BD4680BC704700BF9D
:1057700080B483B000AF78604FF47053C4F202037A
:105780007A68DA6007F10C07BD4680BC704700BF3D
:1057900080B483B000AF4FF00803FB714FF4705337
:1057A000C4F20203DB6803F48033002B03D04FF014
:1057B0000103FB7129E04FF47053C4F20203DB686C
:1057C00003F01003002B03D04FF00503FB711CE026
:1057D0004FF47053C4F20203DB6803F0EF03002BB5
:1057E00003D04FF00603FB710FE04FF47053C4F287
:1057F0000203DB6803F00203002B03D04FF0070322
:10580000FB7102E04FF00803FB71FB79184607F1CA
:105810000C07BD4680BC704780B582B000AF4FF02A
:105820000803FB71FFF7B4FF0346FB7103E0FFF7CA
:10583000AFFF0346FB71FB79DBB2012BF7D0FB799D
:10584000DBB2184607F10807BD4680BD80B582B0BF
:1058500000AF78607A684FF00003C4F202039A4206
:105860000CD14FF001004FF0010101F015FC4FF099
:1058700001004FF0000101F00FFC9EE07A684FF448
:105880008063C4F202039A420CD14FF002004FF041
:10589000010101F001FC4FF002004FF0000101F0A6
:1058A000FBFB8AE07A684FF40063C4F202039A4279
:1058B0000CD14FF004004FF0010101F0EDFB4FF06F
:1058C00004004FF0000101F0E7FB76E07A684FF446
:1058D0004063C4F202039A420CD14FF008004FF02B
:1058E000010101F0D9FB4FF008004FF0000101F079
:1058F000D3FB62E07A684FF48053C4F202039A4209
:105900000CD14FF010004FF0010101F0C5FB4FF03A
:1059100010004FF0000101F0BFFB4EE07A684FF439
:10592000A053C4F202039A420CD14FF020004FF072
:10593000010101F0B1FB4FF020004FF0000101F038
:10594000ABFB3AE07A684FF4C053C4F202039A42C8
:105950000CD14FF040004FF0010101F09DFB4FF0E2
:1059600040004FF0000101F097FB26E07A684FF409
:10597000E053C4F202039A420CD14FF080004FF082
:10598000010101F089FB4FF080004FF0000101F0B0
:1059900083FB12E07A684FF40053C4F202039A4288
:1059A0000BD14FF480704FF0010101F075FB4FF403
:1059B00080704FF0000101F06FFB07F10807BD4652
:1059C00080BD00BF80B487B000AF786039604FF011
:1059D00000037B614FF000033B614FF00003FB606D
:1059E0004FF000037B618EE07B694FF0010202FA09
:1059F00003F33B613B681A683B691340FB60FA683C
:105A00003B699A427BD17B681B681A467B694FEAE7
:105A100043034FF0030101FA03F36FEA03031A4053
:105A20007B681A607B681B681A463B681B791946BD
:105A30007B694FEA430301FA03F31A437B681A6058
:105A40003B681B79012B03D03B681B79022B38D1B3
:105A50007B689B681A467B694FEA43034FF003015A
:105A600001FA03F36FEA03031A407B689A607B68CC
:105A70009B681A463B685B7919467B694FEA43038A
:105A800001FA03F31A437B689A607B685B681A46E5
:105A90007B699BB24FF0010101FA03F36FEA030344
:105AA0001A407B685A607B685B681A463B689B7942
:105AB00019467B699BB201FA03F39BB21A437B68D8
:105AC0005A607B68DB681A467B699BB24FEA4303E6
:105AD0004FF0030101FA03F36FEA03031A407B68F6
